{
	"data": {
		"bytecode": {
			"linkReferences": {},
			"object": "6080604052600060025560006003553480156200001b57600080fd5b5060405162001489380380620014898339818101604052810190620000419190620000e1565b816000806101000a81548173ffffffffffffffffffffffffffffffffffffffff021916908373ffffffffffffffffffffffffffffffffffffffff16021790555080600160006101000a81548173ffffffffffffffffffffffffffffffffffffffff021916908373ffffffffffffffffffffffffffffffffffffffff16021790555050506200017b565b600081519050620000db8162000161565b92915050565b60008060408385031215620000fb57620000fa6200015c565b5b60006200010b85828601620000ca565b92505060206200011e85828601620000ca565b9150509250929050565b600062000135826200013c565b9050919050565b600073ffffffffffffffffffffffffffffffffffffffff82169050919050565b600080fd5b6200016c8162000128565b81146200017857600080fd5b50565b6112fe806200018b6000396000f3fe60806040526004361061004a5760003560e01c806341a15f111461004f57806358eed4071461007a57806387fe412c14610096578063c8e3118a146100bf578063cf266ed0146100e8575b600080fd5b34801561005b57600080fd5b50610064610111565b6040516100719190610dd3565b60405180910390f35b610094600480360381019061008f9190610b72565b610220565b005b3480156100a257600080fd5b506100bd60048036038101906100b89190610b32565b61056e565b005b3480156100cb57600080fd5b506100e660048036038101906100e19190610b05565b6107ae565b005b3480156100f457600080fd5b5061010f600480360381019061010a9190610b05565b610807565b005b60606004805480602002602001604051908101604052809291908181526020016000905b82821015610217578382906000526020600020906004020160405180608001604052908160008201548152602001600182015481526020016002820154815260200160038201805461018690611040565b80601f01602080910402602001604051908101604052809291908181526020018280546101b290611040565b80156101ff5780601f106101d4576101008083540402835291602001916101ff565b820191906000526020600020905b8154815290600101906020018083116101e257829003601f168201915b50505050508152505081526020019060010190610135565b50505050905090565b3373ffffffffffffffffffffffffffffffffffffffff16600160009054906101000a900473ffffffffffffffffffffffffffffffffffffffff1673ffffffffffffffffffffffffffffffffffffffff16636352211e856040518263ffffffff1660e01b81526004016102929190610e95565b60206040518083038186803b1580156102aa57600080fd5b505afa1580156102be573d6000803e3d6000fd5b505050506040513d601f19601f820116820180604052508101906102e29190610ad8565b73ffffffffffffffffffffffffffffffffffffffff161480156103da57503073ffffffffffffffffffffffffffffffffffffffff16600160009054906101000a900473ffffffffffffffffffffffffffffffffffffffff1673ffffffffffffffffffffffffffffffffffffffff1663081812fc856040518263ffffffff1660e01b81526004016103729190610e95565b60206040518083038186803b15801561038a57600080fd5b505afa15801561039e573d6000803e3d6000fd5b505050506040513d601f19601f820116820180604052508101906103c29190610ad8565b73ffffffffffffffffffffffffffffffffffffffff16145b610419576040517f08c379a000000000000000000000000000000000000000000000000000000000815260040161041090610e15565b60405180910390fd5b42821161045b576040517f08c379a000000000000000000000000000000000000000000000000000000000815260040161045290610e75565b60405180910390fd5b604051806080016040528060025481526020018481526020018381526020018281525060056000600254815260200190815260200160002060008201518160000155602082015181600101556040820151816002015560608201518160030190805190602001906104cd92919061090e565b5090505060046005600060025481526020019081526020016000209080600181540180825580915050600190039060005260206000209060040201600090919091909150600082015481600001556001820154816001015560028201548160020155600382018160030190805461054390611040565b61054e929190610994565b50505060026000815480929190610564906110a3565b9190505550505050565b426005600084815260200190815260200160002060020154116105c6576040517f08c379a00000000000000000000000000000000000000000000000000000000081526004016105bd90610e35565b60405180910390fd5b604051806080016040528083815260200160035481526020018281526020013373ffffffffffffffffffffffffffffffffffffffff1681525060066000600354815260200190815260200160002060008201518160000155602082015181600101556040820151816002015560608201518160030160006101000a81548173ffffffffffffffffffffffffffffffffffffffff021916908373ffffffffffffffffffffffffffffffffffffffff160217905550905050610e1060056000848152602001908152602001600020600201546106a09190610f6c565b60056000848152602001908152602001600020600201819055506007600083815260200190815260200160002060066000600354815260200190815260200160002090806001815401808255809150506001900390600052602060002090600402016000909190919091506000820154816000015560018201548160010155600282015481600201556003820160009054906101000a900473ffffffffffffffffffffffffffffffffffffffff168160030160006101000a81548173ffffffffffffffffffffffffffffffffffffffff021916908373ffffffffffffffffffffffffffffffffffffffff1602179055505050600360008154809291906107a5906110a3565b91905055505050565b6000806107ba83610862565b809250819350505081610802576040517f08c379a00000000000000000000000000000000000000000000000000000000081526004016107f990610df5565b60405180910390fd5b505050565b4260056000838152602001908152602001600020600201541061085f576040517f08c379a000000000000000000000000000000000000000000000000000000000815260040161085690610e55565b60405180910390fd5b50565b60008060008060048054905090504260056000878152602001908152602001600020600201541161089657600191506108a7565b600091508181935093505050610909565b60005b6004805490508110156108ff5785600482815481106108cc576108cb61114a565b5b90600052602060002090600402016000015414156108ec578091506108ff565b80806108f7906110a3565b9150506108aa565b5081819350935050505b915091565b82805461091a90611040565b90600052602060002090601f01602090048101928261093c5760008555610983565b82601f1061095557805160ff1916838001178555610983565b82800160010185558215610983579182015b82811115610982578251825591602001919060010190610967565b5b5090506109909190610a21565b5090565b8280546109a090611040565b90600052602060002090601f0160209004810192826109c25760008555610a10565b82601f106109d35780548555610a10565b82800160010185558215610a1057600052602060002091601f016020900482015b82811115610a0f5782548255916001019190600101906109f4565b5b509050610a1d9190610a21565b5090565b5b80821115610a3a576000816000905550600101610a22565b5090565b6000610a51610a4c84610ed5565b610eb0565b905082815260208101848484011115610a6d57610a6c6111ad565b5b610a78848285610ffe565b509392505050565b600081519050610a8f8161129a565b92915050565b600082601f830112610aaa57610aa96111a8565b5b8135610aba848260208601610a3e565b91505092915050565b600081359050610ad2816112b1565b92915050565b600060208284031215610aee57610aed6111b7565b5b6000610afc84828501610a80565b91505092915050565b600060208284031215610b1b57610b1a6111b7565b5b6000610b2984828501610ac3565b91505092915050565b60008060408385031215610b4957610b486111b7565b5b6000610b5785828601610ac3565b9250506020610b6885828601610ac3565b9150509250929050565b600080600060608486031215610b8b57610b8a6111b7565b5b6000610b9986828701610ac3565b9350506020610baa86828701610ac3565b925050604084013567ffffffffffffffff811115610bcb57610bca6111b2565b5b610bd786828701610a95565b9150509250925092565b6000610bed8383610d52565b905092915050565b6000610c0082610f16565b610c0a8185610f39565b935083602082028501610c1c85610f06565b8060005b85811015610c585784840389528151610c398582610be1565b9450610c4483610f2c565b925060208a01995050600181019050610c20565b50829750879550505050505092915050565b6000610c7582610f21565b610c7f8185610f4a565b9350610c8f81856020860161100d565b610c98816111bc565b840191505092915050565b6000610cb0601183610f5b565b9150610cbb826111cd565b602082019050919050565b6000610cd3602583610f5b565b9150610cde826111f6565b604082019050919050565b6000610cf6601383610f5b565b9150610d0182611245565b602082019050919050565b6000610d19600083610f5b565b9150610d248261126e565b600082019050919050565b6000610d3c601183610f5b565b9150610d4782611271565b602082019050919050565b6000608083016000830151610d6a6000860182610db5565b506020830151610d7d6020860182610db5565b506040830151610d906040860182610db5565b5060608301518482036060860152610da88282610c6a565b9150508091505092915050565b610dbe81610ff4565b82525050565b610dcd81610ff4565b82525050565b60006020820190508181036000830152610ded8184610bf5565b905092915050565b60006020820190508181036000830152610e0e81610ca3565b9050919050565b60006020820190508181036000830152610e2e81610cc6565b9050919050565b60006020820190508181036000830152610e4e81610ce9565b9050919050565b60006020820190508181036000830152610e6e81610d0c565b9050919050565b60006020820190508181036000830152610e8e81610d2f565b9050919050565b6000602082019050610eaa6000830184610dc4565b92915050565b6000610eba610ecb565b9050610ec68282611072565b919050565b6000604051905090565b600067ffffffffffffffff821115610ef057610eef611179565b5b610ef9826111bc565b9050602081019050919050565b6000819050602082019050919050565b600081519050919050565b600081519050919050565b6000602082019050919050565b600082825260208201905092915050565b600082825260208201905092915050565b600082825260208201905092915050565b6000610f7782610ff4565b9150610f8283610ff4565b9250827fffffffffffffffffffffffffffffffffffffffffffffffffffffffffffffffff03821115610fb757610fb66110ec565b5b828201905092915050565b6000610fcd82610fd4565b9050919050565b600073ffffffffffffffffffffffffffffffffffffffff82169050919050565b6000819050919050565b82818337600083830152505050565b60005b8381101561102b578082015181840152602081019050611010565b8381111561103a576000848401525b50505050565b6000600282049050600182168061105857607f821691505b6020821081141561106c5761106b61111b565b5b50919050565b61107b826111bc565b810181811067ffffffffffffffff8211171561109a57611099611179565b5b80604052505050565b60006110ae82610ff4565b91507fffffffffffffffffffffffffffffffffffffffffffffffffffffffffffffffff8214156110e1576110e06110ec565b5b600182019050919050565b7f4e487b7100000000000000000000000000000000000000000000000000000000600052601160045260246000fd5b7f4e487b7100000000000000000000000000000000000000000000000000000000600052602260045260246000fd5b7f4e487b7100000000000000000000000000000000000000000000000000000000600052603260045260246000fd5b7f4e487b7100000000000000000000000000000000000000000000000000000000600052604160045260246000fd5b600080fd5b600080fd5b600080fd5b600080fd5b6000601f19601f8301169050919050565b7f64656164206c696e65206973206c656674000000000000000000000000000000600082015250565b7f656e726f6c6c2041756374696f6e203a2041757468656e7469636174696f6e2060008201527f6572726f72000000000000000000000000000000000000000000000000000000602082015250565b7f57726f6e672061756374696f6e4e756d20212000000000000000000000000000600082015250565b50565b7f77726f6e672064656164206c696e652021000000000000000000000000000000600082015250565b6112a381610fc2565b81146112ae57600080fd5b50565b6112ba81610ff4565b81146112c557600080fd5b5056fea2646970667358221220bc577b0cb1853ba0384bff35d859544a8fbf70398596d01f60fa27cbb7aeac2864736f6c63430008070033",
			"opcodes": "PUSH1 0x80 PUSH1 0x40 MSTORE PUSH1 0x0 PUSH1 0x2 SSTORE PUSH1 0x0 PUSH1 0x3 SSTORE CALLVALUE DUP1 ISZERO PUSH3 0x1B JUMPI PUSH1 0x0 DUP1 REVERT JUMPDEST POP PUSH1 0x40 MLOAD PUSH3 0x1489 CODESIZE SUB DUP1 PUSH3 0x1489 DUP4 CODECOPY DUP2 DUP2 ADD PUSH1 0x40 MSTORE DUP2 ADD SWAP1 PUSH3 0x41 SWAP2 SWAP1 PUSH3 0xE1 JUMP JUMPDEST DUP2 PUSH1 0x0 DUP1 PUSH2 0x100 EXP DUP2 SLOAD DUP2 PUSH20 0xFFFFFFFFFFFFFFFFFFFFFFFFFFFFFFFFFFFFFFFF MUL NOT AND SWAP1 DUP4 PUSH20 0xFFFFFFFFFFFFFFFFFFFFFFFFFFFFFFFFFFFFFFFF AND MUL OR SWAP1 SSTORE POP DUP1 PUSH1 0x1 PUSH1 0x0 PUSH2 0x100 EXP DUP2 SLOAD DUP2 PUSH20 0xFFFFFFFFFFFFFFFFFFFFFFFFFFFFFFFFFFFFFFFF MUL NOT AND SWAP1 DUP4 PUSH20 0xFFFFFFFFFFFFFFFFFFFFFFFFFFFFFFFFFFFFFFFF AND MUL OR SWAP1 SSTORE POP POP POP PUSH3 0x17B JUMP JUMPDEST PUSH1 0x0 DUP2 MLOAD SWAP1 POP PUSH3 0xDB DUP2 PUSH3 0x161 JUMP JUMPDEST SWAP3 SWAP2 POP POP JUMP JUMPDEST PUSH1 0x0 DUP1 PUSH1 0x40 DUP4 DUP6 SUB SLT ISZERO PUSH3 0xFB JUMPI PUSH3 0xFA PUSH3 0x15C JUMP JUMPDEST JUMPDEST PUSH1 0x0 PUSH3 0x10B DUP6 DUP3 DUP7 ADD PUSH3 0xCA JUMP JUMPDEST SWAP3 POP POP PUSH1 0x20 PUSH3 0x11E DUP6 DUP3 DUP7 ADD PUSH3 0xCA JUMP JUMPDEST SWAP2 POP POP SWAP3 POP SWAP3 SWAP1 POP JUMP JUMPDEST PUSH1 0x0 PUSH3 0x135 DUP3 PUSH3 0x13C JUMP JUMPDEST SWAP1 POP SWAP2 SWAP1 POP JUMP JUMPDEST PUSH1 0x0 PUSH20 0xFFFFFFFFFFFFFFFFFFFFFFFFFFFFFFFFFFFFFFFF DUP3 AND SWAP1 POP SWAP2 SWAP1 POP JUMP JUMPDEST PUSH1 0x0 DUP1 REVERT JUMPDEST PUSH3 0x16C DUP2 PUSH3 0x128 JUMP JUMPDEST DUP2 EQ PUSH3 0x178 JUMPI PUSH1 0x0 DUP1 REVERT JUMPDEST POP JUMP JUMPDEST PUSH2 0x12FE DUP1 PUSH3 0x18B PUSH1 0x0 CODECOPY PUSH1 0x0 RETURN INVALID PUSH1 0x80 PUSH1 0x40 MSTORE PUSH1 0x4 CALLDATASIZE LT PUSH2 0x4A JUMPI PUSH1 0x0 CALLDATALOAD PUSH1 0xE0 SHR DUP1 PUSH4 0x41A15F11 EQ PUSH2 0x4F JUMPI DUP1 PUSH4 0x58EED407 EQ PUSH2 0x7A JUMPI DUP1 PUSH4 0x87FE412C EQ PUSH2 0x96 JUMPI DUP1 PUSH4 0xC8E3118A EQ PUSH2 0xBF JUMPI DUP1 PUSH4 0xCF266ED0 EQ PUSH2 0xE8 JUMPI JUMPDEST PUSH1 0x0 DUP1 REVERT JUMPDEST CALLVALUE DUP1 ISZERO PUSH2 0x5B JUMPI PUSH1 0x0 DUP1 REVERT JUMPDEST POP PUSH2 0x64 PUSH2 0x111 JUMP JUMPDEST PUSH1 0x40 MLOAD PUSH2 0x71 SWAP2 SWAP1 PUSH2 0xDD3 JUMP JUMPDEST PUSH1 0x40 MLOAD DUP1 SWAP2 SUB SWAP1 RETURN JUMPDEST PUSH2 0x94 PUSH1 0x4 DUP1 CALLDATASIZE SUB DUP2 ADD SWAP1 PUSH2 0x8F SWAP2 SWAP1 PUSH2 0xB72 JUMP JUMPDEST PUSH2 0x220 JUMP JUMPDEST STOP JUMPDEST CALLVALUE DUP1 ISZERO PUSH2 0xA2 JUMPI PUSH1 0x0 DUP1 REVERT JUMPDEST POP PUSH2 0xBD PUSH1 0x4 DUP1 CALLDATASIZE SUB DUP2 ADD SWAP1 PUSH2 0xB8 SWAP2 SWAP1 PUSH2 0xB32 JUMP JUMPDEST PUSH2 0x56E JUMP JUMPDEST STOP JUMPDEST CALLVALUE DUP1 ISZERO PUSH2 0xCB JUMPI PUSH1 0x0 DUP1 REVERT JUMPDEST POP PUSH2 0xE6 PUSH1 0x4 DUP1 CALLDATASIZE SUB DUP2 ADD SWAP1 PUSH2 0xE1 SWAP2 SWAP1 PUSH2 0xB05 JUMP JUMPDEST PUSH2 0x7AE JUMP JUMPDEST STOP JUMPDEST CALLVALUE DUP1 ISZERO PUSH2 0xF4 JUMPI PUSH1 0x0 DUP1 REVERT JUMPDEST POP PUSH2 0x10F PUSH1 0x4 DUP1 CALLDATASIZE SUB DUP2 ADD SWAP1 PUSH2 0x10A SWAP2 SWAP1 PUSH2 0xB05 JUMP JUMPDEST PUSH2 0x807 JUMP JUMPDEST STOP JUMPDEST PUSH1 0x60 PUSH1 0x4 DUP1 SLOAD DUP1 PUSH1 0x20 MUL PUSH1 0x20 ADD PUSH1 0x40 MLOAD SWAP1 DUP2 ADD PUSH1 0x40 MSTORE DUP1 SWAP3 SWAP2 SWAP1 DUP2 DUP2 MSTORE PUSH1 0x20 ADD PUSH1 0x0 SWAP1 JUMPDEST DUP3 DUP3 LT ISZERO PUSH2 0x217 JUMPI DUP4 DUP3 SWAP1 PUSH1 0x0 MSTORE PUSH1 0x20 PUSH1 0x0 KECCAK256 SWAP1 PUSH1 0x4 MUL ADD PUSH1 0x40 MLOAD DUP1 PUSH1 0x80 ADD PUSH1 0x40 MSTORE SWAP1 DUP2 PUSH1 0x0 DUP3 ADD SLOAD DUP2 MSTORE PUSH1 0x20 ADD PUSH1 0x1 DUP3 ADD SLOAD DUP2 MSTORE PUSH1 0x20 ADD PUSH1 0x2 DUP3 ADD SLOAD DUP2 MSTORE PUSH1 0x20 ADD PUSH1 0x3 DUP3 ADD DUP1 SLOAD PUSH2 0x186 SWAP1 PUSH2 0x1040 JUMP JUMPDEST DUP1 PUSH1 0x1F ADD PUSH1 0x20 DUP1 SWAP2 DIV MUL PUSH1 0x20 ADD PUSH1 0x40 MLOAD SWAP1 DUP2 ADD PUSH1 0x40 MSTORE DUP1 SWAP3 SWAP2 SWAP1 DUP2 DUP2 MSTORE PUSH1 0x20 ADD DUP3 DUP1 SLOAD PUSH2 0x1B2 SWAP1 PUSH2 0x1040 JUMP JUMPDEST DUP1 ISZERO PUSH2 0x1FF JUMPI DUP1 PUSH1 0x1F LT PUSH2 0x1D4 JUMPI PUSH2 0x100 DUP1 DUP4 SLOAD DIV MUL DUP4 MSTORE SWAP2 PUSH1 0x20 ADD SWAP2 PUSH2 0x1FF JUMP JUMPDEST DUP3 ADD SWAP2 SWAP1 PUSH1 0x0 MSTORE PUSH1 0x20 PUSH1 0x0 KECCAK256 SWAP1 JUMPDEST DUP2 SLOAD DUP2 MSTORE SWAP1 PUSH1 0x1 ADD SWAP1 PUSH1 0x20 ADD DUP1 DUP4 GT PUSH2 0x1E2 JUMPI DUP3 SWAP1 SUB PUSH1 0x1F AND DUP3 ADD SWAP2 JUMPDEST POP POP POP POP POP DUP2 MSTORE POP POP DUP2 MSTORE PUSH1 0x20 ADD SWAP1 PUSH1 0x1 ADD SWAP1 PUSH2 0x135 JUMP JUMPDEST POP POP POP POP SWAP1 POP SWAP1 JUMP JUMPDEST CALLER PUSH20 0xFFFFFFFFFFFFFFFFFFFFFFFFFFFFFFFFFFFFFFFF AND PUSH1 0x1 PUSH1 0x0 SWAP1 SLOAD SWAP1 PUSH2 0x100 EXP SWAP1 DIV PUSH20 0xFFFFFFFFFFFFFFFFFFFFFFFFFFFFFFFFFFFFFFFF AND PUSH20 0xFFFFFFFFFFFFFFFFFFFFFFFFFFFFFFFFFFFFFFFF AND PUSH4 0x6352211E DUP6 PUSH1 0x40 MLOAD DUP3 PUSH4 0xFFFFFFFF AND PUSH1 0xE0 SHL DUP2 MSTORE PUSH1 0x4 ADD PUSH2 0x292 SWAP2 SWAP1 PUSH2 0xE95 JUMP JUMPDEST PUSH1 0x20 PUSH1 0x40 MLOAD DUP1 DUP4 SUB DUP2 DUP7 DUP1 EXTCODESIZE ISZERO DUP1 ISZERO PUSH2 0x2AA JUMPI PUSH1 0x0 DUP1 REVERT JUMPDEST POP GAS STATICCALL ISZERO DUP1 ISZERO PUSH2 0x2BE JUMPI RETURNDATASIZE PUSH1 0x0 DUP1 RETURNDATACOPY RETURNDATASIZE PUSH1 0x0 REVERT JUMPDEST POP POP POP POP PUSH1 0x40 MLOAD RETURNDATASIZE PUSH1 0x1F NOT PUSH1 0x1F DUP3 ADD AND DUP3 ADD DUP1 PUSH1 0x40 MSTORE POP DUP2 ADD SWAP1 PUSH2 0x2E2 SWAP2 SWAP1 PUSH2 0xAD8 JUMP JUMPDEST PUSH20 0xFFFFFFFFFFFFFFFFFFFFFFFFFFFFFFFFFFFFFFFF AND EQ DUP1 ISZERO PUSH2 0x3DA JUMPI POP ADDRESS PUSH20 0xFFFFFFFFFFFFFFFFFFFFFFFFFFFFFFFFFFFFFFFF AND PUSH1 0x1 PUSH1 0x0 SWAP1 SLOAD SWAP1 PUSH2 0x100 EXP SWAP1 DIV PUSH20 0xFFFFFFFFFFFFFFFFFFFFFFFFFFFFFFFFFFFFFFFF AND PUSH20 0xFFFFFFFFFFFFFFFFFFFFFFFFFFFFFFFFFFFFFFFF AND PUSH4 0x81812FC DUP6 PUSH1 0x40 MLOAD DUP3 PUSH4 0xFFFFFFFF AND PUSH1 0xE0 SHL DUP2 MSTORE PUSH1 0x4 ADD PUSH2 0x372 SWAP2 SWAP1 PUSH2 0xE95 JUMP JUMPDEST PUSH1 0x20 PUSH1 0x40 MLOAD DUP1 DUP4 SUB DUP2 DUP7 DUP1 EXTCODESIZE ISZERO DUP1 ISZERO PUSH2 0x38A JUMPI PUSH1 0x0 DUP1 REVERT JUMPDEST POP GAS STATICCALL ISZERO DUP1 ISZERO PUSH2 0x39E JUMPI RETURNDATASIZE PUSH1 0x0 DUP1 RETURNDATACOPY RETURNDATASIZE PUSH1 0x0 REVERT JUMPDEST POP POP POP POP PUSH1 0x40 MLOAD RETURNDATASIZE PUSH1 0x1F NOT PUSH1 0x1F DUP3 ADD AND DUP3 ADD DUP1 PUSH1 0x40 MSTORE POP DUP2 ADD SWAP1 PUSH2 0x3C2 SWAP2 SWAP1 PUSH2 0xAD8 JUMP JUMPDEST PUSH20 0xFFFFFFFFFFFFFFFFFFFFFFFFFFFFFFFFFFFFFFFF AND EQ JUMPDEST PUSH2 0x419 JUMPI PUSH1 0x40 MLOAD PUSH32 0x8C379A000000000000000000000000000000000000000000000000000000000 DUP2 MSTORE PUSH1 0x4 ADD PUSH2 0x410 SWAP1 PUSH2 0xE15 JUMP JUMPDEST PUSH1 0x40 MLOAD DUP1 SWAP2 SUB SWAP1 REVERT JUMPDEST TIMESTAMP DUP3 GT PUSH2 0x45B JUMPI PUSH1 0x40 MLOAD PUSH32 0x8C379A000000000000000000000000000000000000000000000000000000000 DUP2 MSTORE PUSH1 0x4 ADD PUSH2 0x452 SWAP1 PUSH2 0xE75 JUMP JUMPDEST PUSH1 0x40 MLOAD DUP1 SWAP2 SUB SWAP1 REVERT JUMPDEST PUSH1 0x40 MLOAD DUP1 PUSH1 0x80 ADD PUSH1 0x40 MSTORE DUP1 PUSH1 0x2 SLOAD DUP2 MSTORE PUSH1 0x20 ADD DUP5 DUP2 MSTORE PUSH1 0x20 ADD DUP4 DUP2 MSTORE PUSH1 0x20 ADD DUP3 DUP2 MSTORE POP PUSH1 0x5 PUSH1 0x0 PUSH1 0x2 SLOAD DUP2 MSTORE PUSH1 0x20 ADD SWAP1 DUP2 MSTORE PUSH1 0x20 ADD PUSH1 0x0 KECCAK256 PUSH1 0x0 DUP3 ADD MLOAD DUP2 PUSH1 0x0 ADD SSTORE PUSH1 0x20 DUP3 ADD MLOAD DUP2 PUSH1 0x1 ADD SSTORE PUSH1 0x40 DUP3 ADD MLOAD DUP2 PUSH1 0x2 ADD SSTORE PUSH1 0x60 DUP3 ADD MLOAD DUP2 PUSH1 0x3 ADD SWAP1 DUP1 MLOAD SWAP1 PUSH1 0x20 ADD SWAP1 PUSH2 0x4CD SWAP3 SWAP2 SWAP1 PUSH2 0x90E JUMP JUMPDEST POP SWAP1 POP POP PUSH1 0x4 PUSH1 0x5 PUSH1 0x0 PUSH1 0x2 SLOAD DUP2 MSTORE PUSH1 0x20 ADD SWAP1 DUP2 MSTORE PUSH1 0x20 ADD PUSH1 0x0 KECCAK256 SWAP1 DUP1 PUSH1 0x1 DUP2 SLOAD ADD DUP1 DUP3 SSTORE DUP1 SWAP2 POP POP PUSH1 0x1 SWAP1 SUB SWAP1 PUSH1 0x0 MSTORE PUSH1 0x20 PUSH1 0x0 KECCAK256 SWAP1 PUSH1 0x4 MUL ADD PUSH1 0x0 SWAP1 SWAP2 SWAP1 SWAP2 SWAP1 SWAP2 POP PUSH1 0x0 DUP3 ADD SLOAD DUP2 PUSH1 0x0 ADD SSTORE PUSH1 0x1 DUP3 ADD SLOAD DUP2 PUSH1 0x1 ADD SSTORE PUSH1 0x2 DUP3 ADD SLOAD DUP2 PUSH1 0x2 ADD SSTORE PUSH1 0x3 DUP3 ADD DUP2 PUSH1 0x3 ADD SWAP1 DUP1 SLOAD PUSH2 0x543 SWAP1 PUSH2 0x1040 JUMP JUMPDEST PUSH2 0x54E SWAP3 SWAP2 SWAP1 PUSH2 0x994 JUMP JUMPDEST POP POP POP PUSH1 0x2 PUSH1 0x0 DUP2 SLOAD DUP1 SWAP3 SWAP2 SWAP1 PUSH2 0x564 SWAP1 PUSH2 0x10A3 JUMP JUMPDEST SWAP2 SWAP1 POP SSTORE POP POP POP POP JUMP JUMPDEST TIMESTAMP PUSH1 0x5 PUSH1 0x0 DUP5 DUP2 MSTORE PUSH1 0x20 ADD SWAP1 DUP2 MSTORE PUSH1 0x20 ADD PUSH1 0x0 KECCAK256 PUSH1 0x2 ADD SLOAD GT PUSH2 0x5C6 JUMPI PUSH1 0x40 MLOAD PUSH32 0x8C379A000000000000000000000000000000000000000000000000000000000 DUP2 MSTORE PUSH1 0x4 ADD PUSH2 0x5BD SWAP1 PUSH2 0xE35 JUMP JUMPDEST PUSH1 0x40 MLOAD DUP1 SWAP2 SUB SWAP1 REVERT JUMPDEST PUSH1 0x40 MLOAD DUP1 PUSH1 0x80 ADD PUSH1 0x40 MSTORE DUP1 DUP4 DUP2 MSTORE PUSH1 0x20 ADD PUSH1 0x3 SLOAD DUP2 MSTORE PUSH1 0x20 ADD DUP3 DUP2 MSTORE PUSH1 0x20 ADD CALLER PUSH20 0xFFFFFFFFFFFFFFFFFFFFFFFFFFFFFFFFFFFFFFFF AND DUP2 MSTORE POP PUSH1 0x6 PUSH1 0x0 PUSH1 0x3 SLOAD DUP2 MSTORE PUSH1 0x20 ADD SWAP1 DUP2 MSTORE PUSH1 0x20 ADD PUSH1 0x0 KECCAK256 PUSH1 0x0 DUP3 ADD MLOAD DUP2 PUSH1 0x0 ADD SSTORE PUSH1 0x20 DUP3 ADD MLOAD DUP2 PUSH1 0x1 ADD SSTORE PUSH1 0x40 DUP3 ADD MLOAD DUP2 PUSH1 0x2 ADD SSTORE PUSH1 0x60 DUP3 ADD MLOAD DUP2 PUSH1 0x3 ADD PUSH1 0x0 PUSH2 0x100 EXP DUP2 SLOAD DUP2 PUSH20 0xFFFFFFFFFFFFFFFFFFFFFFFFFFFFFFFFFFFFFFFF MUL NOT AND SWAP1 DUP4 PUSH20 0xFFFFFFFFFFFFFFFFFFFFFFFFFFFFFFFFFFFFFFFF AND MUL OR SWAP1 SSTORE POP SWAP1 POP POP PUSH2 0xE10 PUSH1 0x5 PUSH1 0x0 DUP5 DUP2 MSTORE PUSH1 0x20 ADD SWAP1 DUP2 MSTORE PUSH1 0x20 ADD PUSH1 0x0 KECCAK256 PUSH1 0x2 ADD SLOAD PUSH2 0x6A0 SWAP2 SWAP1 PUSH2 0xF6C JUMP JUMPDEST PUSH1 0x5 PUSH1 0x0 DUP5 DUP2 MSTORE PUSH1 0x20 ADD SWAP1 DUP2 MSTORE PUSH1 0x20 ADD PUSH1 0x0 KECCAK256 PUSH1 0x2 ADD DUP2 SWAP1 SSTORE POP PUSH1 0x7 PUSH1 0x0 DUP4 DUP2 MSTORE PUSH1 0x20 ADD SWAP1 DUP2 MSTORE PUSH1 0x20 ADD PUSH1 0x0 KECCAK256 PUSH1 0x6 PUSH1 0x0 PUSH1 0x3 SLOAD DUP2 MSTORE PUSH1 0x20 ADD SWAP1 DUP2 MSTORE PUSH1 0x20 ADD PUSH1 0x0 KECCAK256 SWAP1 DUP1 PUSH1 0x1 DUP2 SLOAD ADD DUP1 DUP3 SSTORE DUP1 SWAP2 POP POP PUSH1 0x1 SWAP1 SUB SWAP1 PUSH1 0x0 MSTORE PUSH1 0x20 PUSH1 0x0 KECCAK256 SWAP1 PUSH1 0x4 MUL ADD PUSH1 0x0 SWAP1 SWAP2 SWAP1 SWAP2 SWAP1 SWAP2 POP PUSH1 0x0 DUP3 ADD SLOAD DUP2 PUSH1 0x0 ADD SSTORE PUSH1 0x1 DUP3 ADD SLOAD DUP2 PUSH1 0x1 ADD SSTORE PUSH1 0x2 DUP3 ADD SLOAD DUP2 PUSH1 0x2 ADD SSTORE PUSH1 0x3 DUP3 ADD PUSH1 0x0 SWAP1 SLOAD SWAP1 PUSH2 0x100 EXP SWAP1 DIV PUSH20 0xFFFFFFFFFFFFFFFFFFFFFFFFFFFFFFFFFFFFFFFF AND DUP2 PUSH1 0x3 ADD PUSH1 0x0 PUSH2 0x100 EXP DUP2 SLOAD DUP2 PUSH20 0xFFFFFFFFFFFFFFFFFFFFFFFFFFFFFFFFFFFFFFFF MUL NOT AND SWAP1 DUP4 PUSH20 0xFFFFFFFFFFFFFFFFFFFFFFFFFFFFFFFFFFFFFFFF AND MUL OR SWAP1 SSTORE POP POP POP PUSH1 0x3 PUSH1 0x0 DUP2 SLOAD DUP1 SWAP3 SWAP2 SWAP1 PUSH2 0x7A5 SWAP1 PUSH2 0x10A3 JUMP JUMPDEST SWAP2 SWAP1 POP SSTORE POP POP POP JUMP JUMPDEST PUSH1 0x0 DUP1 PUSH2 0x7BA DUP4 PUSH2 0x862 JUMP JUMPDEST DUP1 SWAP3 POP DUP2 SWAP4 POP POP POP DUP2 PUSH2 0x802 JUMPI PUSH1 0x40 MLOAD PUSH32 0x8C379A000000000000000000000000000000000000000000000000000000000 DUP2 MSTORE PUSH1 0x4 ADD PUSH2 0x7F9 SWAP1 PUSH2 0xDF5 JUMP JUMPDEST PUSH1 0x40 MLOAD DUP1 SWAP2 SUB SWAP1 REVERT JUMPDEST POP POP POP JUMP JUMPDEST TIMESTAMP PUSH1 0x5 PUSH1 0x0 DUP4 DUP2 MSTORE PUSH1 0x20 ADD SWAP1 DUP2 MSTORE PUSH1 0x20 ADD PUSH1 0x0 KECCAK256 PUSH1 0x2 ADD SLOAD LT PUSH2 0x85F JUMPI PUSH1 0x40 MLOAD PUSH32 0x8C379A000000000000000000000000000000000000000000000000000000000 DUP2 MSTORE PUSH1 0x4 ADD PUSH2 0x856 SWAP1 PUSH2 0xE55 JUMP JUMPDEST PUSH1 0x40 MLOAD DUP1 SWAP2 SUB SWAP1 REVERT JUMPDEST POP JUMP JUMPDEST PUSH1 0x0 DUP1 PUSH1 0x0 DUP1 PUSH1 0x4 DUP1 SLOAD SWAP1 POP SWAP1 POP TIMESTAMP PUSH1 0x5 PUSH1 0x0 DUP8 DUP2 MSTORE PUSH1 0x20 ADD SWAP1 DUP2 MSTORE PUSH1 0x20 ADD PUSH1 0x0 KECCAK256 PUSH1 0x2 ADD SLOAD GT PUSH2 0x896 JUMPI PUSH1 0x1 SWAP2 POP PUSH2 0x8A7 JUMP JUMPDEST PUSH1 0x0 SWAP2 POP DUP2 DUP2 SWAP4 POP SWAP4 POP POP POP PUSH2 0x909 JUMP JUMPDEST PUSH1 0x0 JUMPDEST PUSH1 0x4 DUP1 SLOAD SWAP1 POP DUP2 LT ISZERO PUSH2 0x8FF JUMPI DUP6 PUSH1 0x4 DUP3 DUP2 SLOAD DUP2 LT PUSH2 0x8CC JUMPI PUSH2 0x8CB PUSH2 0x114A JUMP JUMPDEST JUMPDEST SWAP1 PUSH1 0x0 MSTORE PUSH1 0x20 PUSH1 0x0 KECCAK256 SWAP1 PUSH1 0x4 MUL ADD PUSH1 0x0 ADD SLOAD EQ ISZERO PUSH2 0x8EC JUMPI DUP1 SWAP2 POP PUSH2 0x8FF JUMP JUMPDEST DUP1 DUP1 PUSH2 0x8F7 SWAP1 PUSH2 0x10A3 JUMP JUMPDEST SWAP2 POP POP PUSH2 0x8AA JUMP JUMPDEST POP DUP2 DUP2 SWAP4 POP SWAP4 POP POP POP JUMPDEST SWAP2 POP SWAP2 JUMP JUMPDEST DUP3 DUP1 SLOAD PUSH2 0x91A SWAP1 PUSH2 0x1040 JUMP JUMPDEST SWAP1 PUSH1 0x0 MSTORE PUSH1 0x20 PUSH1 0x0 KECCAK256 SWAP1 PUSH1 0x1F ADD PUSH1 0x20 SWAP1 DIV DUP2 ADD SWAP3 DUP3 PUSH2 0x93C JUMPI PUSH1 0x0 DUP6 SSTORE PUSH2 0x983 JUMP JUMPDEST DUP3 PUSH1 0x1F LT PUSH2 0x955 JUMPI DUP1 MLOAD PUSH1 0xFF NOT AND DUP4 DUP1 ADD OR DUP6 SSTORE PUSH2 0x983 JUMP JUMPDEST DUP3 DUP1 ADD PUSH1 0x1 ADD DUP6 SSTORE DUP3 ISZERO PUSH2 0x983 JUMPI SWAP2 DUP3 ADD JUMPDEST DUP3 DUP2 GT ISZERO PUSH2 0x982 JUMPI DUP3 MLOAD DUP3 SSTORE SWAP2 PUSH1 0x20 ADD SWAP2 SWAP1 PUSH1 0x1 ADD SWAP1 PUSH2 0x967 JUMP JUMPDEST JUMPDEST POP SWAP1 POP PUSH2 0x990 SWAP2 SWAP1 PUSH2 0xA21 JUMP JUMPDEST POP SWAP1 JUMP JUMPDEST DUP3 DUP1 SLOAD PUSH2 0x9A0 SWAP1 PUSH2 0x1040 JUMP JUMPDEST SWAP1 PUSH1 0x0 MSTORE PUSH1 0x20 PUSH1 0x0 KECCAK256 SWAP1 PUSH1 0x1F ADD PUSH1 0x20 SWAP1 DIV DUP2 ADD SWAP3 DUP3 PUSH2 0x9C2 JUMPI PUSH1 0x0 DUP6 SSTORE PUSH2 0xA10 JUMP JUMPDEST DUP3 PUSH1 0x1F LT PUSH2 0x9D3 JUMPI DUP1 SLOAD DUP6 SSTORE PUSH2 0xA10 JUMP JUMPDEST DUP3 DUP1 ADD PUSH1 0x1 ADD DUP6 SSTORE DUP3 ISZERO PUSH2 0xA10 JUMPI PUSH1 0x0 MSTORE PUSH1 0x20 PUSH1 0x0 KECCAK256 SWAP2 PUSH1 0x1F ADD PUSH1 0x20 SWAP1 DIV DUP3 ADD JUMPDEST DUP3 DUP2 GT ISZERO PUSH2 0xA0F JUMPI DUP3 SLOAD DUP3 SSTORE SWAP2 PUSH1 0x1 ADD SWAP2 SWAP1 PUSH1 0x1 ADD SWAP1 PUSH2 0x9F4 JUMP JUMPDEST JUMPDEST POP SWAP1 POP PUSH2 0xA1D SWAP2 SWAP1 PUSH2 0xA21 JUMP JUMPDEST POP SWAP1 JUMP JUMPDEST JUMPDEST DUP1 DUP3 GT ISZERO PUSH2 0xA3A JUMPI PUSH1 0x0 DUP2 PUSH1 0x0 SWAP1 SSTORE POP PUSH1 0x1 ADD PUSH2 0xA22 JUMP JUMPDEST POP SWAP1 JUMP JUMPDEST PUSH1 0x0 PUSH2 0xA51 PUSH2 0xA4C DUP5 PUSH2 0xED5 JUMP JUMPDEST PUSH2 0xEB0 JUMP JUMPDEST SWAP1 POP DUP3 DUP2 MSTORE PUSH1 0x20 DUP2 ADD DUP5 DUP5 DUP5 ADD GT ISZERO PUSH2 0xA6D JUMPI PUSH2 0xA6C PUSH2 0x11AD JUMP JUMPDEST JUMPDEST PUSH2 0xA78 DUP5 DUP3 DUP6 PUSH2 0xFFE JUMP JUMPDEST POP SWAP4 SWAP3 POP POP POP JUMP JUMPDEST PUSH1 0x0 DUP2 MLOAD SWAP1 POP PUSH2 0xA8F DUP2 PUSH2 0x129A JUMP JUMPDEST SWAP3 SWAP2 POP POP JUMP JUMPDEST PUSH1 0x0 DUP3 PUSH1 0x1F DUP4 ADD SLT PUSH2 0xAAA JUMPI PUSH2 0xAA9 PUSH2 0x11A8 JUMP JUMPDEST JUMPDEST DUP2 CALLDATALOAD PUSH2 0xABA DUP5 DUP3 PUSH1 0x20 DUP7 ADD PUSH2 0xA3E JUMP JUMPDEST SWAP2 POP POP SWAP3 SWAP2 POP POP JUMP JUMPDEST PUSH1 0x0 DUP2 CALLDATALOAD SWAP1 POP PUSH2 0xAD2 DUP2 PUSH2 0x12B1 JUMP JUMPDEST SWAP3 SWAP2 POP POP JUMP JUMPDEST PUSH1 0x0 PUSH1 0x20 DUP3 DUP5 SUB SLT ISZERO PUSH2 0xAEE JUMPI PUSH2 0xAED PUSH2 0x11B7 JUMP JUMPDEST JUMPDEST PUSH1 0x0 PUSH2 0xAFC DUP5 DUP3 DUP6 ADD PUSH2 0xA80 JUMP JUMPDEST SWAP2 POP POP SWAP3 SWAP2 POP POP JUMP JUMPDEST PUSH1 0x0 PUSH1 0x20 DUP3 DUP5 SUB SLT ISZERO PUSH2 0xB1B JUMPI PUSH2 0xB1A PUSH2 0x11B7 JUMP JUMPDEST JUMPDEST PUSH1 0x0 PUSH2 0xB29 DUP5 DUP3 DUP6 ADD PUSH2 0xAC3 JUMP JUMPDEST SWAP2 POP POP SWAP3 SWAP2 POP POP JUMP JUMPDEST PUSH1 0x0 DUP1 PUSH1 0x40 DUP4 DUP6 SUB SLT ISZERO PUSH2 0xB49 JUMPI PUSH2 0xB48 PUSH2 0x11B7 JUMP JUMPDEST JUMPDEST PUSH1 0x0 PUSH2 0xB57 DUP6 DUP3 DUP7 ADD PUSH2 0xAC3 JUMP JUMPDEST SWAP3 POP POP PUSH1 0x20 PUSH2 0xB68 DUP6 DUP3 DUP7 ADD PUSH2 0xAC3 JUMP JUMPDEST SWAP2 POP POP SWAP3 POP SWAP3 SWAP1 POP JUMP JUMPDEST PUSH1 0x0 DUP1 PUSH1 0x0 PUSH1 0x60 DUP5 DUP7 SUB SLT ISZERO PUSH2 0xB8B JUMPI PUSH2 0xB8A PUSH2 0x11B7 JUMP JUMPDEST JUMPDEST PUSH1 0x0 PUSH2 0xB99 DUP7 DUP3 DUP8 ADD PUSH2 0xAC3 JUMP JUMPDEST SWAP4 POP POP PUSH1 0x20 PUSH2 0xBAA DUP7 DUP3 DUP8 ADD PUSH2 0xAC3 JUMP JUMPDEST SWAP3 POP POP PUSH1 0x40 DUP5 ADD CALLDATALOAD PUSH8 0xFFFFFFFFFFFFFFFF DUP2 GT ISZERO PUSH2 0xBCB JUMPI PUSH2 0xBCA PUSH2 0x11B2 JUMP JUMPDEST JUMPDEST PUSH2 0xBD7 DUP7 DUP3 DUP8 ADD PUSH2 0xA95 JUMP JUMPDEST SWAP2 POP POP SWAP3 POP SWAP3 POP SWAP3 JUMP JUMPDEST PUSH1 0x0 PUSH2 0xBED DUP4 DUP4 PUSH2 0xD52 JUMP JUMPDEST SWAP1 POP SWAP3 SWAP2 POP POP JUMP JUMPDEST PUSH1 0x0 PUSH2 0xC00 DUP3 PUSH2 0xF16 JUMP JUMPDEST PUSH2 0xC0A DUP2 DUP6 PUSH2 0xF39 JUMP JUMPDEST SWAP4 POP DUP4 PUSH1 0x20 DUP3 MUL DUP6 ADD PUSH2 0xC1C DUP6 PUSH2 0xF06 JUMP JUMPDEST DUP1 PUSH1 0x0 JUMPDEST DUP6 DUP2 LT ISZERO PUSH2 0xC58 JUMPI DUP5 DUP5 SUB DUP10 MSTORE DUP2 MLOAD PUSH2 0xC39 DUP6 DUP3 PUSH2 0xBE1 JUMP JUMPDEST SWAP5 POP PUSH2 0xC44 DUP4 PUSH2 0xF2C JUMP JUMPDEST SWAP3 POP PUSH1 0x20 DUP11 ADD SWAP10 POP POP PUSH1 0x1 DUP2 ADD SWAP1 POP PUSH2 0xC20 JUMP JUMPDEST POP DUP3 SWAP8 POP DUP8 SWAP6 POP POP POP POP POP POP SWAP3 SWAP2 POP POP JUMP JUMPDEST PUSH1 0x0 PUSH2 0xC75 DUP3 PUSH2 0xF21 JUMP JUMPDEST PUSH2 0xC7F DUP2 DUP6 PUSH2 0xF4A JUMP JUMPDEST SWAP4 POP PUSH2 0xC8F DUP2 DUP6 PUSH1 0x20 DUP7 ADD PUSH2 0x100D JUMP JUMPDEST PUSH2 0xC98 DUP2 PUSH2 0x11BC JUMP JUMPDEST DUP5 ADD SWAP2 POP POP SWAP3 SWAP2 POP POP JUMP JUMPDEST PUSH1 0x0 PUSH2 0xCB0 PUSH1 0x11 DUP4 PUSH2 0xF5B JUMP JUMPDEST SWAP2 POP PUSH2 0xCBB DUP3 PUSH2 0x11CD JUMP JUMPDEST PUSH1 0x20 DUP3 ADD SWAP1 POP SWAP2 SWAP1 POP JUMP JUMPDEST PUSH1 0x0 PUSH2 0xCD3 PUSH1 0x25 DUP4 PUSH2 0xF5B JUMP JUMPDEST SWAP2 POP PUSH2 0xCDE DUP3 PUSH2 0x11F6 JUMP JUMPDEST PUSH1 0x40 DUP3 ADD SWAP1 POP SWAP2 SWAP1 POP JUMP JUMPDEST PUSH1 0x0 PUSH2 0xCF6 PUSH1 0x13 DUP4 PUSH2 0xF5B JUMP JUMPDEST SWAP2 POP PUSH2 0xD01 DUP3 PUSH2 0x1245 JUMP JUMPDEST PUSH1 0x20 DUP3 ADD SWAP1 POP SWAP2 SWAP1 POP JUMP JUMPDEST PUSH1 0x0 PUSH2 0xD19 PUSH1 0x0 DUP4 PUSH2 0xF5B JUMP JUMPDEST SWAP2 POP PUSH2 0xD24 DUP3 PUSH2 0x126E JUMP JUMPDEST PUSH1 0x0 DUP3 ADD SWAP1 POP SWAP2 SWAP1 POP JUMP JUMPDEST PUSH1 0x0 PUSH2 0xD3C PUSH1 0x11 DUP4 PUSH2 0xF5B JUMP JUMPDEST SWAP2 POP PUSH2 0xD47 DUP3 PUSH2 0x1271 JUMP JUMPDEST PUSH1 0x20 DUP3 ADD SWAP1 POP SWAP2 SWAP1 POP JUMP JUMPDEST PUSH1 0x0 PUSH1 0x80 DUP4 ADD PUSH1 0x0 DUP4 ADD MLOAD PUSH2 0xD6A PUSH1 0x0 DUP7 ADD DUP3 PUSH2 0xDB5 JUMP JUMPDEST POP PUSH1 0x20 DUP4 ADD MLOAD PUSH2 0xD7D PUSH1 0x20 DUP7 ADD DUP3 PUSH2 0xDB5 JUMP JUMPDEST POP PUSH1 0x40 DUP4 ADD MLOAD PUSH2 0xD90 PUSH1 0x40 DUP7 ADD DUP3 PUSH2 0xDB5 JUMP JUMPDEST POP PUSH1 0x60 DUP4 ADD MLOAD DUP5 DUP3 SUB PUSH1 0x60 DUP7 ADD MSTORE PUSH2 0xDA8 DUP3 DUP3 PUSH2 0xC6A JUMP JUMPDEST SWAP2 POP POP DUP1 SWAP2 POP POP SWAP3 SWAP2 POP POP JUMP JUMPDEST PUSH2 0xDBE DUP2 PUSH2 0xFF4 JUMP JUMPDEST DUP3 MSTORE POP POP JUMP JUMPDEST PUSH2 0xDCD DUP2 PUSH2 0xFF4 JUMP JUMPDEST DUP3 MSTORE POP POP JUMP JUMPDEST PUSH1 0x0 PUSH1 0x20 DUP3 ADD SWAP1 POP DUP2 DUP2 SUB PUSH1 0x0 DUP4 ADD MSTORE PUSH2 0xDED DUP2 DUP5 PUSH2 0xBF5 JUMP JUMPDEST SWAP1 POP SWAP3 SWAP2 POP POP JUMP JUMPDEST PUSH1 0x0 PUSH1 0x20 DUP3 ADD SWAP1 POP DUP2 DUP2 SUB PUSH1 0x0 DUP4 ADD MSTORE PUSH2 0xE0E DUP2 PUSH2 0xCA3 JUMP JUMPDEST SWAP1 POP SWAP2 SWAP1 POP JUMP JUMPDEST PUSH1 0x0 PUSH1 0x20 DUP3 ADD SWAP1 POP DUP2 DUP2 SUB PUSH1 0x0 DUP4 ADD MSTORE PUSH2 0xE2E DUP2 PUSH2 0xCC6 JUMP JUMPDEST SWAP1 POP SWAP2 SWAP1 POP JUMP JUMPDEST PUSH1 0x0 PUSH1 0x20 DUP3 ADD SWAP1 POP DUP2 DUP2 SUB PUSH1 0x0 DUP4 ADD MSTORE PUSH2 0xE4E DUP2 PUSH2 0xCE9 JUMP JUMPDEST SWAP1 POP SWAP2 SWAP1 POP JUMP JUMPDEST PUSH1 0x0 PUSH1 0x20 DUP3 ADD SWAP1 POP DUP2 DUP2 SUB PUSH1 0x0 DUP4 ADD MSTORE PUSH2 0xE6E DUP2 PUSH2 0xD0C JUMP JUMPDEST SWAP1 POP SWAP2 SWAP1 POP JUMP JUMPDEST PUSH1 0x0 PUSH1 0x20 DUP3 ADD SWAP1 POP DUP2 DUP2 SUB PUSH1 0x0 DUP4 ADD MSTORE PUSH2 0xE8E DUP2 PUSH2 0xD2F JUMP JUMPDEST SWAP1 POP SWAP2 SWAP1 POP JUMP JUMPDEST PUSH1 0x0 PUSH1 0x20 DUP3 ADD SWAP1 POP PUSH2 0xEAA PUSH1 0x0 DUP4 ADD DUP5 PUSH2 0xDC4 JUMP JUMPDEST SWAP3 SWAP2 POP POP JUMP JUMPDEST PUSH1 0x0 PUSH2 0xEBA PUSH2 0xECB JUMP JUMPDEST SWAP1 POP PUSH2 0xEC6 DUP3 DUP3 PUSH2 0x1072 JUMP JUMPDEST SWAP2 SWAP1 POP JUMP JUMPDEST PUSH1 0x0 PUSH1 0x40 MLOAD SWAP1 POP SWAP1 JUMP JUMPDEST PUSH1 0x0 PUSH8 0xFFFFFFFFFFFFFFFF DUP3 GT ISZERO PUSH2 0xEF0 JUMPI PUSH2 0xEEF PUSH2 0x1179 JUMP JUMPDEST JUMPDEST PUSH2 0xEF9 DUP3 PUSH2 0x11BC JUMP JUMPDEST SWAP1 POP PUSH1 0x20 DUP2 ADD SWAP1 POP SWAP2 SWAP1 POP JUMP JUMPDEST PUSH1 0x0 DUP2 SWAP1 POP PUSH1 0x20 DUP3 ADD SWAP1 POP SWAP2 SWAP1 POP JUMP JUMPDEST PUSH1 0x0 DUP2 MLOAD SWAP1 POP SWAP2 SWAP1 POP JUMP JUMPDEST PUSH1 0x0 DUP2 MLOAD SWAP1 POP SWAP2 SWAP1 POP JUMP JUMPDEST PUSH1 0x0 PUSH1 0x20 DUP3 ADD SWAP1 POP SWAP2 SWAP1 POP JUMP JUMPDEST PUSH1 0x0 DUP3 DUP3 MSTORE PUSH1 0x20 DUP3 ADD SWAP1 POP SWAP3 SWAP2 POP POP JUMP JUMPDEST PUSH1 0x0 DUP3 DUP3 MSTORE PUSH1 0x20 DUP3 ADD SWAP1 POP SWAP3 SWAP2 POP POP JUMP JUMPDEST PUSH1 0x0 DUP3 DUP3 MSTORE PUSH1 0x20 DUP3 ADD SWAP1 POP SWAP3 SWAP2 POP POP JUMP JUMPDEST PUSH1 0x0 PUSH2 0xF77 DUP3 PUSH2 0xFF4 JUMP JUMPDEST SWAP2 POP PUSH2 0xF82 DUP4 PUSH2 0xFF4 JUMP JUMPDEST SWAP3 POP DUP3 PUSH32 0xFFFFFFFFFFFFFFFFFFFFFFFFFFFFFFFFFFFFFFFFFFFFFFFFFFFFFFFFFFFFFFFF SUB DUP3 GT ISZERO PUSH2 0xFB7 JUMPI PUSH2 0xFB6 PUSH2 0x10EC JUMP JUMPDEST JUMPDEST DUP3 DUP3 ADD SWAP1 POP SWAP3 SWAP2 POP POP JUMP JUMPDEST PUSH1 0x0 PUSH2 0xFCD DUP3 PUSH2 0xFD4 JUMP JUMPDEST SWAP1 POP SWAP2 SWAP1 POP JUMP JUMPDEST PUSH1 0x0 PUSH20 0xFFFFFFFFFFFFFFFFFFFFFFFFFFFFFFFFFFFFFFFF DUP3 AND SWAP1 POP SWAP2 SWAP1 POP JUMP JUMPDEST PUSH1 0x0 DUP2 SWAP1 POP SWAP2 SWAP1 POP JUMP JUMPDEST DUP3 DUP2 DUP4 CALLDATACOPY PUSH1 0x0 DUP4 DUP4 ADD MSTORE POP POP POP JUMP JUMPDEST PUSH1 0x0 JUMPDEST DUP4 DUP2 LT ISZERO PUSH2 0x102B JUMPI DUP1 DUP3 ADD MLOAD DUP2 DUP5 ADD MSTORE PUSH1 0x20 DUP2 ADD SWAP1 POP PUSH2 0x1010 JUMP JUMPDEST DUP4 DUP2 GT ISZERO PUSH2 0x103A JUMPI PUSH1 0x0 DUP5 DUP5 ADD MSTORE JUMPDEST POP POP POP POP JUMP JUMPDEST PUSH1 0x0 PUSH1 0x2 DUP3 DIV SWAP1 POP PUSH1 0x1 DUP3 AND DUP1 PUSH2 0x1058 JUMPI PUSH1 0x7F DUP3 AND SWAP2 POP JUMPDEST PUSH1 0x20 DUP3 LT DUP2 EQ ISZERO PUSH2 0x106C JUMPI PUSH2 0x106B PUSH2 0x111B JUMP JUMPDEST JUMPDEST POP SWAP2 SWAP1 POP JUMP JUMPDEST PUSH2 0x107B DUP3 PUSH2 0x11BC JUMP JUMPDEST DUP2 ADD DUP2 DUP2 LT PUSH8 0xFFFFFFFFFFFFFFFF DUP3 GT OR ISZERO PUSH2 0x109A JUMPI PUSH2 0x1099 PUSH2 0x1179 JUMP JUMPDEST JUMPDEST DUP1 PUSH1 0x40 MSTORE POP POP POP JUMP JUMPDEST PUSH1 0x0 PUSH2 0x10AE DUP3 PUSH2 0xFF4 JUMP JUMPDEST SWAP2 POP PUSH32 0xFFFFFFFFFFFFFFFFFFFFFFFFFFFFFFFFFFFFFFFFFFFFFFFFFFFFFFFFFFFFFFFF DUP3 EQ ISZERO PUSH2 0x10E1 JUMPI PUSH2 0x10E0 PUSH2 0x10EC JUMP JUMPDEST JUMPDEST PUSH1 0x1 DUP3 ADD SWAP1 POP SWAP2 SWAP1 POP JUMP JUMPDEST PUSH32 0x4E487B7100000000000000000000000000000000000000000000000000000000 PUSH1 0x0 MSTORE PUSH1 0x11 PUSH1 0x4 MSTORE PUSH1 0x24 PUSH1 0x0 REVERT JUMPDEST PUSH32 0x4E487B7100000000000000000000000000000000000000000000000000000000 PUSH1 0x0 MSTORE PUSH1 0x22 PUSH1 0x4 MSTORE PUSH1 0x24 PUSH1 0x0 REVERT JUMPDEST PUSH32 0x4E487B7100000000000000000000000000000000000000000000000000000000 PUSH1 0x0 MSTORE PUSH1 0x32 PUSH1 0x4 MSTORE PUSH1 0x24 PUSH1 0x0 REVERT JUMPDEST PUSH32 0x4E487B7100000000000000000000000000000000000000000000000000000000 PUSH1 0x0 MSTORE PUSH1 0x41 PUSH1 0x4 MSTORE PUSH1 0x24 PUSH1 0x0 REVERT JUMPDEST PUSH1 0x0 DUP1 REVERT JUMPDEST PUSH1 0x0 DUP1 REVERT JUMPDEST PUSH1 0x0 DUP1 REVERT JUMPDEST PUSH1 0x0 DUP1 REVERT JUMPDEST PUSH1 0x0 PUSH1 0x1F NOT PUSH1 0x1F DUP4 ADD AND SWAP1 POP SWAP2 SWAP1 POP JUMP JUMPDEST PUSH32 0x64656164206C696E65206973206C656674000000000000000000000000000000 PUSH1 0x0 DUP3 ADD MSTORE POP JUMP JUMPDEST PUSH32 0x656E726F6C6C2041756374696F6E203A2041757468656E7469636174696F6E20 PUSH1 0x0 DUP3 ADD MSTORE PUSH32 0x6572726F72000000000000000000000000000000000000000000000000000000 PUSH1 0x20 DUP3 ADD MSTORE POP JUMP JUMPDEST PUSH32 0x57726F6E672061756374696F6E4E756D20212000000000000000000000000000 PUSH1 0x0 DUP3 ADD MSTORE POP JUMP JUMPDEST POP JUMP JUMPDEST PUSH32 0x77726F6E672064656164206C696E652021000000000000000000000000000000 PUSH1 0x0 DUP3 ADD MSTORE POP JUMP JUMPDEST PUSH2 0x12A3 DUP2 PUSH2 0xFC2 JUMP JUMPDEST DUP2 EQ PUSH2 0x12AE JUMPI PUSH1 0x0 DUP1 REVERT JUMPDEST POP JUMP JUMPDEST PUSH2 0x12BA DUP2 PUSH2 0xFF4 JUMP JUMPDEST DUP2 EQ PUSH2 0x12C5 JUMPI PUSH1 0x0 DUP1 REVERT JUMPDEST POP JUMP INVALID LOG2 PUSH5 0x6970667358 0x22 SLT KECCAK256 0xBC JUMPI PUSH28 0xCB1853BA0384BFF35D859544A8FBF70398596D01F60FA27CBB7AEAC 0x28 PUSH5 0x736F6C6343 STOP ADDMOD SMOD STOP CALLER "
		},
		"gasEstimates": {
			"creation": {
				"codeDepositCost": "972400",
				"executionCost": "infinite",
				"totalCost": "infinite"
			},
			"external": {
				"bidding(uint256,uint256)": "infinite",
				"dealingAuction(uint256)": "infinite",
				"enrollAuction(uint256,uint256,string)": "infinite",
				"finishAuction(uint256)": "2947",
				"getAuctionList()": "infinite"
			},
			"internal": {
				"_checkDeadLine()": "infinite",
				"_checkDeadLineAuctionNum(uint256)": "infinite",
				"_findHighestBid(uint256)": "infinite"
			}
		},
		"methodIdentifiers": {
			"bidding(uint256,uint256)": "87fe412c",
			"dealingAuction(uint256)": "c8e3118a",
			"enrollAuction(uint256,uint256,string)": "58eed407",
			"finishAuction(uint256)": "cf266ed0",
			"getAuctionList()": "41a15f11"
		}
	},
	"abi": [
		{
			"inputs": [
				{
					"internalType": "address",
					"name": "erc20",
					"type": "address"
				},
				{
					"internalType": "address",
					"name": "erc721",
					"type": "address"
				}
			],
			"stateMutability": "nonpayable",
			"type": "constructor"
		},
		{
			"inputs": [
				{
					"internalType": "uint256",
					"name": "auctionNum",
					"type": "uint256"
				},
				{
					"internalType": "uint256",
					"name": "price",
					"type": "uint256"
				}
			],
			"name": "bidding",
			"outputs": [],
			"stateMutability": "nonpayable",
			"type": "function"
		},
		{
			"inputs": [
				{
					"internalType": "uint256",
					"name": "auctionNum",
					"type": "uint256"
				}
			],
			"name": "dealingAuction",
			"outputs": [],
			"stateMutability": "nonpayable",
			"type": "function"
		},
		{
			"inputs": [
				{
					"internalType": "uint256",
					"name": "_tokenId",
					"type": "uint256"
				},
				{
					"internalType": "uint256",
					"name": "_deadLine",
					"type": "uint256"
				},
				{
					"internalType": "string",
					"name": "_desc",
					"type": "string"
				}
			],
			"name": "enrollAuction",
			"outputs": [],
			"stateMutability": "payable",
			"type": "function"
		},
		{
			"inputs": [
				{
					"internalType": "uint256",
					"name": "auctionNum",
					"type": "uint256"
				}
			],
			"name": "finishAuction",
			"outputs": [],
			"stateMutability": "nonpayable",
			"type": "function"
		},
		{
			"inputs": [],
			"name": "getAuctionList",
			"outputs": [
				{
					"components": [
						{
							"internalType": "uint256",
							"name": "auctionNum",
							"type": "uint256"
						},
						{
							"internalType": "uint256",
							"name": "tokenId",
							"type": "uint256"
						},
						{
							"internalType": "uint256",
							"name": "deadLine",
							"type": "uint256"
						},
						{
							"internalType": "string",
							"name": "desc",
							"type": "string"
						}
					],
					"internalType": "struct AuctionContract.Auction[]",
					"name": "",
					"type": "tuple[]"
				}
			],
			"stateMutability": "view",
			"type": "function"
		}
	]
}