{
	"data": {
		"bytecode": {
			"linkReferences": {},
			"object": "6080604052600060025560006003553480156200001b57600080fd5b50604051620011d7380380620011d78339818101604052810190620000419190620000e1565b816000806101000a81548173ffffffffffffffffffffffffffffffffffffffff021916908373ffffffffffffffffffffffffffffffffffffffff16021790555080600160006101000a81548173ffffffffffffffffffffffffffffffffffffffff021916908373ffffffffffffffffffffffffffffffffffffffff16021790555050506200017b565b600081519050620000db8162000161565b92915050565b60008060408385031215620000fb57620000fa6200015c565b5b60006200010b85828601620000ca565b92505060206200011e85828601620000ca565b9150509250929050565b600062000135826200013c565b9050919050565b600073ffffffffffffffffffffffffffffffffffffffff82169050919050565b600080fd5b6200016c8162000128565b81146200017857600080fd5b50565b61104c806200018b6000396000f3fe60806040526004361061003f5760003560e01c806341a15f111461004457806358eed4071461006f57806387fe412c1461008b578063de064c1c146100b4575b600080fd5b34801561005057600080fd5b506100596100cb565b6040516100669190610bbc565b60405180910390f35b610089600480360381019061008491906109a1565b6101da565b005b34801561009757600080fd5b506100b260048036038101906100ad9190610961565b610528565b005b3480156100c057600080fd5b506100c9610768565b005b60606004805480602002602001604051908101604052809291908181526020016000905b828210156101d1578382906000526020600020906004020160405180608001604052908160008201548152602001600182015481526020016002820154815260200160038201805461014090610de9565b80601f016020809104026020016040519081016040528092919081815260200182805461016c90610de9565b80156101b95780601f1061018e576101008083540402835291602001916101b9565b820191906000526020600020905b81548152906001019060200180831161019c57829003601f168201915b505050505081525050815260200190600101906100ef565b50505050905090565b3373ffffffffffffffffffffffffffffffffffffffff16600160009054906101000a900473ffffffffffffffffffffffffffffffffffffffff1673ffffffffffffffffffffffffffffffffffffffff16636352211e856040518263ffffffff1660e01b815260040161024c9190610c3e565b60206040518083038186803b15801561026457600080fd5b505afa158015610278573d6000803e3d6000fd5b505050506040513d601f19601f8201168201806040525081019061029c9190610934565b73ffffffffffffffffffffffffffffffffffffffff1614801561039457503073ffffffffffffffffffffffffffffffffffffffff16600160009054906101000a900473ffffffffffffffffffffffffffffffffffffffff1673ffffffffffffffffffffffffffffffffffffffff1663081812fc856040518263ffffffff1660e01b815260040161032c9190610c3e565b60206040518083038186803b15801561034457600080fd5b505afa158015610358573d6000803e3d6000fd5b505050506040513d601f19601f8201168201806040525081019061037c9190610934565b73ffffffffffffffffffffffffffffffffffffffff16145b6103d3576040517f08c379a00000000000000000000000000000000000000000000000000000000081526004016103ca90610bde565b60405180910390fd5b428211610415576040517f08c379a000000000000000000000000000000000000000000000000000000000815260040161040c90610c1e565b60405180910390fd5b6040518060800160405280600254815260200184815260200183815260200182815250600560006002548152602001908152602001600020600082015181600001556020820151816001015560408201518160020155606082015181600301908051906020019061048792919061076a565b509050506004600560006002548152602001908152602001600020908060018154018082558091505060019003906000526020600020906004020160009091909190915060008201548160000155600182015481600101556002820154816002015560038201816003019080546104fd90610de9565b6105089291906107f0565b5050506002600081548092919061051e90610e4c565b9190505550505050565b42600560008481526020019081526020016000206002015411610580576040517f08c379a000000000000000000000000000000000000000000000000000000000815260040161057790610bfe565b60405180910390fd5b604051806080016040528083815260200160035481526020018281526020013373ffffffffffffffffffffffffffffffffffffffff1681525060066000600354815260200190815260200160002060008201518160000155602082015181600101556040820151816002015560608201518160030160006101000a81548173ffffffffffffffffffffffffffffffffffffffff021916908373ffffffffffffffffffffffffffffffffffffffff160217905550905050610e10600560008481526020019081526020016000206002015461065a9190610d15565b60056000848152602001908152602001600020600201819055506007600083815260200190815260200160002060066000600354815260200190815260200160002090806001815401808255809150506001900390600052602060002090600402016000909190919091506000820154816000015560018201548160010155600282015481600201556003820160009054906101000a900473ffffffffffffffffffffffffffffffffffffffff168160030160006101000a81548173ffffffffffffffffffffffffffffffffffffffff021916908373ffffffffffffffffffffffffffffffffffffffff16021790555050506003600081548092919061075f90610e4c565b91905055505050565b565b82805461077690610de9565b90600052602060002090601f01602090048101928261079857600085556107df565b82601f106107b157805160ff19168380011785556107df565b828001600101855582156107df579182015b828111156107de5782518255916020019190600101906107c3565b5b5090506107ec919061087d565b5090565b8280546107fc90610de9565b90600052602060002090601f01602090048101928261081e576000855561086c565b82601f1061082f578054855561086c565b8280016001018555821561086c57600052602060002091601f016020900482015b8281111561086b578254825591600101919060010190610850565b5b509050610879919061087d565b5090565b5b8082111561089657600081600090555060010161087e565b5090565b60006108ad6108a884610c7e565b610c59565b9050828152602081018484840111156108c9576108c8610f27565b5b6108d4848285610da7565b509392505050565b6000815190506108eb81610fe8565b92915050565b600082601f83011261090657610905610f22565b5b813561091684826020860161089a565b91505092915050565b60008135905061092e81610fff565b92915050565b60006020828403121561094a57610949610f31565b5b6000610958848285016108dc565b91505092915050565b6000806040838503121561097857610977610f31565b5b60006109868582860161091f565b92505060206109978582860161091f565b9150509250929050565b6000806000606084860312156109ba576109b9610f31565b5b60006109c88682870161091f565b93505060206109d98682870161091f565b925050604084013567ffffffffffffffff8111156109fa576109f9610f2c565b5b610a06868287016108f1565b9150509250925092565b6000610a1c8383610b3b565b905092915050565b6000610a2f82610cbf565b610a398185610ce2565b935083602082028501610a4b85610caf565b8060005b85811015610a875784840389528151610a688582610a10565b9450610a7383610cd5565b925060208a01995050600181019050610a4f565b50829750879550505050505092915050565b6000610aa482610cca565b610aae8185610cf3565b9350610abe818560208601610db6565b610ac781610f36565b840191505092915050565b6000610adf602583610d04565b9150610aea82610f47565b604082019050919050565b6000610b02601383610d04565b9150610b0d82610f96565b602082019050919050565b6000610b25601183610d04565b9150610b3082610fbf565b602082019050919050565b6000608083016000830151610b536000860182610b9e565b506020830151610b666020860182610b9e565b506040830151610b796040860182610b9e565b5060608301518482036060860152610b918282610a99565b9150508091505092915050565b610ba781610d9d565b82525050565b610bb681610d9d565b82525050565b60006020820190508181036000830152610bd68184610a24565b905092915050565b60006020820190508181036000830152610bf781610ad2565b9050919050565b60006020820190508181036000830152610c1781610af5565b9050919050565b60006020820190508181036000830152610c3781610b18565b9050919050565b6000602082019050610c536000830184610bad565b92915050565b6000610c63610c74565b9050610c6f8282610e1b565b919050565b6000604051905090565b600067ffffffffffffffff821115610c9957610c98610ef3565b5b610ca282610f36565b9050602081019050919050565b6000819050602082019050919050565b600081519050919050565b600081519050919050565b6000602082019050919050565b600082825260208201905092915050565b600082825260208201905092915050565b600082825260208201905092915050565b6000610d2082610d9d565b9150610d2b83610d9d565b9250827fffffffffffffffffffffffffffffffffffffffffffffffffffffffffffffffff03821115610d6057610d5f610e95565b5b828201905092915050565b6000610d7682610d7d565b9050919050565b600073ffffffffffffffffffffffffffffffffffffffff82169050919050565b6000819050919050565b82818337600083830152505050565b60005b83811015610dd4578082015181840152602081019050610db9565b83811115610de3576000848401525b50505050565b60006002820490506001821680610e0157607f821691505b60208210811415610e1557610e14610ec4565b5b50919050565b610e2482610f36565b810181811067ffffffffffffffff82111715610e4357610e42610ef3565b5b80604052505050565b6000610e5782610d9d565b91507fffffffffffffffffffffffffffffffffffffffffffffffffffffffffffffffff821415610e8a57610e89610e95565b5b600182019050919050565b7f4e487b7100000000000000000000000000000000000000000000000000000000600052601160045260246000fd5b7f4e487b7100000000000000000000000000000000000000000000000000000000600052602260045260246000fd5b7f4e487b7100000000000000000000000000000000000000000000000000000000600052604160045260246000fd5b600080fd5b600080fd5b600080fd5b600080fd5b6000601f19601f8301169050919050565b7f656e726f6c6c2041756374696f6e203a2041757468656e7469636174696f6e2060008201527f6572726f72000000000000000000000000000000000000000000000000000000602082015250565b7f57726f6e672061756374696f6e4e756d20212000000000000000000000000000600082015250565b7f77726f6e672064656164206c696e652021000000000000000000000000000000600082015250565b610ff181610d6b565b8114610ffc57600080fd5b50565b61100881610d9d565b811461101357600080fd5b5056fea264697066735822122098adda30d0806be61acae7909ca3828bad23d875176caf588828c104327e551064736f6c63430008070033",
			"opcodes": "PUSH1 0x80 PUSH1 0x40 MSTORE PUSH1 0x0 PUSH1 0x2 SSTORE PUSH1 0x0 PUSH1 0x3 SSTORE CALLVALUE DUP1 ISZERO PUSH3 0x1B JUMPI PUSH1 0x0 DUP1 REVERT JUMPDEST POP PUSH1 0x40 MLOAD PUSH3 0x11D7 CODESIZE SUB DUP1 PUSH3 0x11D7 DUP4 CODECOPY DUP2 DUP2 ADD PUSH1 0x40 MSTORE DUP2 ADD SWAP1 PUSH3 0x41 SWAP2 SWAP1 PUSH3 0xE1 JUMP JUMPDEST DUP2 PUSH1 0x0 DUP1 PUSH2 0x100 EXP DUP2 SLOAD DUP2 PUSH20 0xFFFFFFFFFFFFFFFFFFFFFFFFFFFFFFFFFFFFFFFF MUL NOT AND SWAP1 DUP4 PUSH20 0xFFFFFFFFFFFFFFFFFFFFFFFFFFFFFFFFFFFFFFFF AND MUL OR SWAP1 SSTORE POP DUP1 PUSH1 0x1 PUSH1 0x0 PUSH2 0x100 EXP DUP2 SLOAD DUP2 PUSH20 0xFFFFFFFFFFFFFFFFFFFFFFFFFFFFFFFFFFFFFFFF MUL NOT AND SWAP1 DUP4 PUSH20 0xFFFFFFFFFFFFFFFFFFFFFFFFFFFFFFFFFFFFFFFF AND MUL OR SWAP1 SSTORE POP POP POP PUSH3 0x17B JUMP JUMPDEST PUSH1 0x0 DUP2 MLOAD SWAP1 POP PUSH3 0xDB DUP2 PUSH3 0x161 JUMP JUMPDEST SWAP3 SWAP2 POP POP JUMP JUMPDEST PUSH1 0x0 DUP1 PUSH1 0x40 DUP4 DUP6 SUB SLT ISZERO PUSH3 0xFB JUMPI PUSH3 0xFA PUSH3 0x15C JUMP JUMPDEST JUMPDEST PUSH1 0x0 PUSH3 0x10B DUP6 DUP3 DUP7 ADD PUSH3 0xCA JUMP JUMPDEST SWAP3 POP POP PUSH1 0x20 PUSH3 0x11E DUP6 DUP3 DUP7 ADD PUSH3 0xCA JUMP JUMPDEST SWAP2 POP POP SWAP3 POP SWAP3 SWAP1 POP JUMP JUMPDEST PUSH1 0x0 PUSH3 0x135 DUP3 PUSH3 0x13C JUMP JUMPDEST SWAP1 POP SWAP2 SWAP1 POP JUMP JUMPDEST PUSH1 0x0 PUSH20 0xFFFFFFFFFFFFFFFFFFFFFFFFFFFFFFFFFFFFFFFF DUP3 AND SWAP1 POP SWAP2 SWAP1 POP JUMP JUMPDEST PUSH1 0x0 DUP1 REVERT JUMPDEST PUSH3 0x16C DUP2 PUSH3 0x128 JUMP JUMPDEST DUP2 EQ PUSH3 0x178 JUMPI PUSH1 0x0 DUP1 REVERT JUMPDEST POP JUMP JUMPDEST PUSH2 0x104C DUP1 PUSH3 0x18B PUSH1 0x0 CODECOPY PUSH1 0x0 RETURN INVALID PUSH1 0x80 PUSH1 0x40 MSTORE PUSH1 0x4 CALLDATASIZE LT PUSH2 0x3F JUMPI PUSH1 0x0 CALLDATALOAD PUSH1 0xE0 SHR DUP1 PUSH4 0x41A15F11 EQ PUSH2 0x44 JUMPI DUP1 PUSH4 0x58EED407 EQ PUSH2 0x6F JUMPI DUP1 PUSH4 0x87FE412C EQ PUSH2 0x8B JUMPI DUP1 PUSH4 0xDE064C1C EQ PUSH2 0xB4 JUMPI JUMPDEST PUSH1 0x0 DUP1 REVERT JUMPDEST CALLVALUE DUP1 ISZERO PUSH2 0x50 JUMPI PUSH1 0x0 DUP1 REVERT JUMPDEST POP PUSH2 0x59 PUSH2 0xCB JUMP JUMPDEST PUSH1 0x40 MLOAD PUSH2 0x66 SWAP2 SWAP1 PUSH2 0xBBC JUMP JUMPDEST PUSH1 0x40 MLOAD DUP1 SWAP2 SUB SWAP1 RETURN JUMPDEST PUSH2 0x89 PUSH1 0x4 DUP1 CALLDATASIZE SUB DUP2 ADD SWAP1 PUSH2 0x84 SWAP2 SWAP1 PUSH2 0x9A1 JUMP JUMPDEST PUSH2 0x1DA JUMP JUMPDEST STOP JUMPDEST CALLVALUE DUP1 ISZERO PUSH2 0x97 JUMPI PUSH1 0x0 DUP1 REVERT JUMPDEST POP PUSH2 0xB2 PUSH1 0x4 DUP1 CALLDATASIZE SUB DUP2 ADD SWAP1 PUSH2 0xAD SWAP2 SWAP1 PUSH2 0x961 JUMP JUMPDEST PUSH2 0x528 JUMP JUMPDEST STOP JUMPDEST CALLVALUE DUP1 ISZERO PUSH2 0xC0 JUMPI PUSH1 0x0 DUP1 REVERT JUMPDEST POP PUSH2 0xC9 PUSH2 0x768 JUMP JUMPDEST STOP JUMPDEST PUSH1 0x60 PUSH1 0x4 DUP1 SLOAD DUP1 PUSH1 0x20 MUL PUSH1 0x20 ADD PUSH1 0x40 MLOAD SWAP1 DUP2 ADD PUSH1 0x40 MSTORE DUP1 SWAP3 SWAP2 SWAP1 DUP2 DUP2 MSTORE PUSH1 0x20 ADD PUSH1 0x0 SWAP1 JUMPDEST DUP3 DUP3 LT ISZERO PUSH2 0x1D1 JUMPI DUP4 DUP3 SWAP1 PUSH1 0x0 MSTORE PUSH1 0x20 PUSH1 0x0 KECCAK256 SWAP1 PUSH1 0x4 MUL ADD PUSH1 0x40 MLOAD DUP1 PUSH1 0x80 ADD PUSH1 0x40 MSTORE SWAP1 DUP2 PUSH1 0x0 DUP3 ADD SLOAD DUP2 MSTORE PUSH1 0x20 ADD PUSH1 0x1 DUP3 ADD SLOAD DUP2 MSTORE PUSH1 0x20 ADD PUSH1 0x2 DUP3 ADD SLOAD DUP2 MSTORE PUSH1 0x20 ADD PUSH1 0x3 DUP3 ADD DUP1 SLOAD PUSH2 0x140 SWAP1 PUSH2 0xDE9 JUMP JUMPDEST DUP1 PUSH1 0x1F ADD PUSH1 0x20 DUP1 SWAP2 DIV MUL PUSH1 0x20 ADD PUSH1 0x40 MLOAD SWAP1 DUP2 ADD PUSH1 0x40 MSTORE DUP1 SWAP3 SWAP2 SWAP1 DUP2 DUP2 MSTORE PUSH1 0x20 ADD DUP3 DUP1 SLOAD PUSH2 0x16C SWAP1 PUSH2 0xDE9 JUMP JUMPDEST DUP1 ISZERO PUSH2 0x1B9 JUMPI DUP1 PUSH1 0x1F LT PUSH2 0x18E JUMPI PUSH2 0x100 DUP1 DUP4 SLOAD DIV MUL DUP4 MSTORE SWAP2 PUSH1 0x20 ADD SWAP2 PUSH2 0x1B9 JUMP JUMPDEST DUP3 ADD SWAP2 SWAP1 PUSH1 0x0 MSTORE PUSH1 0x20 PUSH1 0x0 KECCAK256 SWAP1 JUMPDEST DUP2 SLOAD DUP2 MSTORE SWAP1 PUSH1 0x1 ADD SWAP1 PUSH1 0x20 ADD DUP1 DUP4 GT PUSH2 0x19C JUMPI DUP3 SWAP1 SUB PUSH1 0x1F AND DUP3 ADD SWAP2 JUMPDEST POP POP POP POP POP DUP2 MSTORE POP POP DUP2 MSTORE PUSH1 0x20 ADD SWAP1 PUSH1 0x1 ADD SWAP1 PUSH2 0xEF JUMP JUMPDEST POP POP POP POP SWAP1 POP SWAP1 JUMP JUMPDEST CALLER PUSH20 0xFFFFFFFFFFFFFFFFFFFFFFFFFFFFFFFFFFFFFFFF AND PUSH1 0x1 PUSH1 0x0 SWAP1 SLOAD SWAP1 PUSH2 0x100 EXP SWAP1 DIV PUSH20 0xFFFFFFFFFFFFFFFFFFFFFFFFFFFFFFFFFFFFFFFF AND PUSH20 0xFFFFFFFFFFFFFFFFFFFFFFFFFFFFFFFFFFFFFFFF AND PUSH4 0x6352211E DUP6 PUSH1 0x40 MLOAD DUP3 PUSH4 0xFFFFFFFF AND PUSH1 0xE0 SHL DUP2 MSTORE PUSH1 0x4 ADD PUSH2 0x24C SWAP2 SWAP1 PUSH2 0xC3E JUMP JUMPDEST PUSH1 0x20 PUSH1 0x40 MLOAD DUP1 DUP4 SUB DUP2 DUP7 DUP1 EXTCODESIZE ISZERO DUP1 ISZERO PUSH2 0x264 JUMPI PUSH1 0x0 DUP1 REVERT JUMPDEST POP GAS STATICCALL ISZERO DUP1 ISZERO PUSH2 0x278 JUMPI RETURNDATASIZE PUSH1 0x0 DUP1 RETURNDATACOPY RETURNDATASIZE PUSH1 0x0 REVERT JUMPDEST POP POP POP POP PUSH1 0x40 MLOAD RETURNDATASIZE PUSH1 0x1F NOT PUSH1 0x1F DUP3 ADD AND DUP3 ADD DUP1 PUSH1 0x40 MSTORE POP DUP2 ADD SWAP1 PUSH2 0x29C SWAP2 SWAP1 PUSH2 0x934 JUMP JUMPDEST PUSH20 0xFFFFFFFFFFFFFFFFFFFFFFFFFFFFFFFFFFFFFFFF AND EQ DUP1 ISZERO PUSH2 0x394 JUMPI POP ADDRESS PUSH20 0xFFFFFFFFFFFFFFFFFFFFFFFFFFFFFFFFFFFFFFFF AND PUSH1 0x1 PUSH1 0x0 SWAP1 SLOAD SWAP1 PUSH2 0x100 EXP SWAP1 DIV PUSH20 0xFFFFFFFFFFFFFFFFFFFFFFFFFFFFFFFFFFFFFFFF AND PUSH20 0xFFFFFFFFFFFFFFFFFFFFFFFFFFFFFFFFFFFFFFFF AND PUSH4 0x81812FC DUP6 PUSH1 0x40 MLOAD DUP3 PUSH4 0xFFFFFFFF AND PUSH1 0xE0 SHL DUP2 MSTORE PUSH1 0x4 ADD PUSH2 0x32C SWAP2 SWAP1 PUSH2 0xC3E JUMP JUMPDEST PUSH1 0x20 PUSH1 0x40 MLOAD DUP1 DUP4 SUB DUP2 DUP7 DUP1 EXTCODESIZE ISZERO DUP1 ISZERO PUSH2 0x344 JUMPI PUSH1 0x0 DUP1 REVERT JUMPDEST POP GAS STATICCALL ISZERO DUP1 ISZERO PUSH2 0x358 JUMPI RETURNDATASIZE PUSH1 0x0 DUP1 RETURNDATACOPY RETURNDATASIZE PUSH1 0x0 REVERT JUMPDEST POP POP POP POP PUSH1 0x40 MLOAD RETURNDATASIZE PUSH1 0x1F NOT PUSH1 0x1F DUP3 ADD AND DUP3 ADD DUP1 PUSH1 0x40 MSTORE POP DUP2 ADD SWAP1 PUSH2 0x37C SWAP2 SWAP1 PUSH2 0x934 JUMP JUMPDEST PUSH20 0xFFFFFFFFFFFFFFFFFFFFFFFFFFFFFFFFFFFFFFFF AND EQ JUMPDEST PUSH2 0x3D3 JUMPI PUSH1 0x40 MLOAD PUSH32 0x8C379A000000000000000000000000000000000000000000000000000000000 DUP2 MSTORE PUSH1 0x4 ADD PUSH2 0x3CA SWAP1 PUSH2 0xBDE JUMP JUMPDEST PUSH1 0x40 MLOAD DUP1 SWAP2 SUB SWAP1 REVERT JUMPDEST TIMESTAMP DUP3 GT PUSH2 0x415 JUMPI PUSH1 0x40 MLOAD PUSH32 0x8C379A000000000000000000000000000000000000000000000000000000000 DUP2 MSTORE PUSH1 0x4 ADD PUSH2 0x40C SWAP1 PUSH2 0xC1E JUMP JUMPDEST PUSH1 0x40 MLOAD DUP1 SWAP2 SUB SWAP1 REVERT JUMPDEST PUSH1 0x40 MLOAD DUP1 PUSH1 0x80 ADD PUSH1 0x40 MSTORE DUP1 PUSH1 0x2 SLOAD DUP2 MSTORE PUSH1 0x20 ADD DUP5 DUP2 MSTORE PUSH1 0x20 ADD DUP4 DUP2 MSTORE PUSH1 0x20 ADD DUP3 DUP2 MSTORE POP PUSH1 0x5 PUSH1 0x0 PUSH1 0x2 SLOAD DUP2 MSTORE PUSH1 0x20 ADD SWAP1 DUP2 MSTORE PUSH1 0x20 ADD PUSH1 0x0 KECCAK256 PUSH1 0x0 DUP3 ADD MLOAD DUP2 PUSH1 0x0 ADD SSTORE PUSH1 0x20 DUP3 ADD MLOAD DUP2 PUSH1 0x1 ADD SSTORE PUSH1 0x40 DUP3 ADD MLOAD DUP2 PUSH1 0x2 ADD SSTORE PUSH1 0x60 DUP3 ADD MLOAD DUP2 PUSH1 0x3 ADD SWAP1 DUP1 MLOAD SWAP1 PUSH1 0x20 ADD SWAP1 PUSH2 0x487 SWAP3 SWAP2 SWAP1 PUSH2 0x76A JUMP JUMPDEST POP SWAP1 POP POP PUSH1 0x4 PUSH1 0x5 PUSH1 0x0 PUSH1 0x2 SLOAD DUP2 MSTORE PUSH1 0x20 ADD SWAP1 DUP2 MSTORE PUSH1 0x20 ADD PUSH1 0x0 KECCAK256 SWAP1 DUP1 PUSH1 0x1 DUP2 SLOAD ADD DUP1 DUP3 SSTORE DUP1 SWAP2 POP POP PUSH1 0x1 SWAP1 SUB SWAP1 PUSH1 0x0 MSTORE PUSH1 0x20 PUSH1 0x0 KECCAK256 SWAP1 PUSH1 0x4 MUL ADD PUSH1 0x0 SWAP1 SWAP2 SWAP1 SWAP2 SWAP1 SWAP2 POP PUSH1 0x0 DUP3 ADD SLOAD DUP2 PUSH1 0x0 ADD SSTORE PUSH1 0x1 DUP3 ADD SLOAD DUP2 PUSH1 0x1 ADD SSTORE PUSH1 0x2 DUP3 ADD SLOAD DUP2 PUSH1 0x2 ADD SSTORE PUSH1 0x3 DUP3 ADD DUP2 PUSH1 0x3 ADD SWAP1 DUP1 SLOAD PUSH2 0x4FD SWAP1 PUSH2 0xDE9 JUMP JUMPDEST PUSH2 0x508 SWAP3 SWAP2 SWAP1 PUSH2 0x7F0 JUMP JUMPDEST POP POP POP PUSH1 0x2 PUSH1 0x0 DUP2 SLOAD DUP1 SWAP3 SWAP2 SWAP1 PUSH2 0x51E SWAP1 PUSH2 0xE4C JUMP JUMPDEST SWAP2 SWAP1 POP SSTORE POP POP POP POP JUMP JUMPDEST TIMESTAMP PUSH1 0x5 PUSH1 0x0 DUP5 DUP2 MSTORE PUSH1 0x20 ADD SWAP1 DUP2 MSTORE PUSH1 0x20 ADD PUSH1 0x0 KECCAK256 PUSH1 0x2 ADD SLOAD GT PUSH2 0x580 JUMPI PUSH1 0x40 MLOAD PUSH32 0x8C379A000000000000000000000000000000000000000000000000000000000 DUP2 MSTORE PUSH1 0x4 ADD PUSH2 0x577 SWAP1 PUSH2 0xBFE JUMP JUMPDEST PUSH1 0x40 MLOAD DUP1 SWAP2 SUB SWAP1 REVERT JUMPDEST PUSH1 0x40 MLOAD DUP1 PUSH1 0x80 ADD PUSH1 0x40 MSTORE DUP1 DUP4 DUP2 MSTORE PUSH1 0x20 ADD PUSH1 0x3 SLOAD DUP2 MSTORE PUSH1 0x20 ADD DUP3 DUP2 MSTORE PUSH1 0x20 ADD CALLER PUSH20 0xFFFFFFFFFFFFFFFFFFFFFFFFFFFFFFFFFFFFFFFF AND DUP2 MSTORE POP PUSH1 0x6 PUSH1 0x0 PUSH1 0x3 SLOAD DUP2 MSTORE PUSH1 0x20 ADD SWAP1 DUP2 MSTORE PUSH1 0x20 ADD PUSH1 0x0 KECCAK256 PUSH1 0x0 DUP3 ADD MLOAD DUP2 PUSH1 0x0 ADD SSTORE PUSH1 0x20 DUP3 ADD MLOAD DUP2 PUSH1 0x1 ADD SSTORE PUSH1 0x40 DUP3 ADD MLOAD DUP2 PUSH1 0x2 ADD SSTORE PUSH1 0x60 DUP3 ADD MLOAD DUP2 PUSH1 0x3 ADD PUSH1 0x0 PUSH2 0x100 EXP DUP2 SLOAD DUP2 PUSH20 0xFFFFFFFFFFFFFFFFFFFFFFFFFFFFFFFFFFFFFFFF MUL NOT AND SWAP1 DUP4 PUSH20 0xFFFFFFFFFFFFFFFFFFFFFFFFFFFFFFFFFFFFFFFF AND MUL OR SWAP1 SSTORE POP SWAP1 POP POP PUSH2 0xE10 PUSH1 0x5 PUSH1 0x0 DUP5 DUP2 MSTORE PUSH1 0x20 ADD SWAP1 DUP2 MSTORE PUSH1 0x20 ADD PUSH1 0x0 KECCAK256 PUSH1 0x2 ADD SLOAD PUSH2 0x65A SWAP2 SWAP1 PUSH2 0xD15 JUMP JUMPDEST PUSH1 0x5 PUSH1 0x0 DUP5 DUP2 MSTORE PUSH1 0x20 ADD SWAP1 DUP2 MSTORE PUSH1 0x20 ADD PUSH1 0x0 KECCAK256 PUSH1 0x2 ADD DUP2 SWAP1 SSTORE POP PUSH1 0x7 PUSH1 0x0 DUP4 DUP2 MSTORE PUSH1 0x20 ADD SWAP1 DUP2 MSTORE PUSH1 0x20 ADD PUSH1 0x0 KECCAK256 PUSH1 0x6 PUSH1 0x0 PUSH1 0x3 SLOAD DUP2 MSTORE PUSH1 0x20 ADD SWAP1 DUP2 MSTORE PUSH1 0x20 ADD PUSH1 0x0 KECCAK256 SWAP1 DUP1 PUSH1 0x1 DUP2 SLOAD ADD DUP1 DUP3 SSTORE DUP1 SWAP2 POP POP PUSH1 0x1 SWAP1 SUB SWAP1 PUSH1 0x0 MSTORE PUSH1 0x20 PUSH1 0x0 KECCAK256 SWAP1 PUSH1 0x4 MUL ADD PUSH1 0x0 SWAP1 SWAP2 SWAP1 SWAP2 SWAP1 SWAP2 POP PUSH1 0x0 DUP3 ADD SLOAD DUP2 PUSH1 0x0 ADD SSTORE PUSH1 0x1 DUP3 ADD SLOAD DUP2 PUSH1 0x1 ADD SSTORE PUSH1 0x2 DUP3 ADD SLOAD DUP2 PUSH1 0x2 ADD SSTORE PUSH1 0x3 DUP3 ADD PUSH1 0x0 SWAP1 SLOAD SWAP1 PUSH2 0x100 EXP SWAP1 DIV PUSH20 0xFFFFFFFFFFFFFFFFFFFFFFFFFFFFFFFFFFFFFFFF AND DUP2 PUSH1 0x3 ADD PUSH1 0x0 PUSH2 0x100 EXP DUP2 SLOAD DUP2 PUSH20 0xFFFFFFFFFFFFFFFFFFFFFFFFFFFFFFFFFFFFFFFF MUL NOT AND SWAP1 DUP4 PUSH20 0xFFFFFFFFFFFFFFFFFFFFFFFFFFFFFFFFFFFFFFFF AND MUL OR SWAP1 SSTORE POP POP POP PUSH1 0x3 PUSH1 0x0 DUP2 SLOAD DUP1 SWAP3 SWAP2 SWAP1 PUSH2 0x75F SWAP1 PUSH2 0xE4C JUMP JUMPDEST SWAP2 SWAP1 POP SSTORE POP POP POP JUMP JUMPDEST JUMP JUMPDEST DUP3 DUP1 SLOAD PUSH2 0x776 SWAP1 PUSH2 0xDE9 JUMP JUMPDEST SWAP1 PUSH1 0x0 MSTORE PUSH1 0x20 PUSH1 0x0 KECCAK256 SWAP1 PUSH1 0x1F ADD PUSH1 0x20 SWAP1 DIV DUP2 ADD SWAP3 DUP3 PUSH2 0x798 JUMPI PUSH1 0x0 DUP6 SSTORE PUSH2 0x7DF JUMP JUMPDEST DUP3 PUSH1 0x1F LT PUSH2 0x7B1 JUMPI DUP1 MLOAD PUSH1 0xFF NOT AND DUP4 DUP1 ADD OR DUP6 SSTORE PUSH2 0x7DF JUMP JUMPDEST DUP3 DUP1 ADD PUSH1 0x1 ADD DUP6 SSTORE DUP3 ISZERO PUSH2 0x7DF JUMPI SWAP2 DUP3 ADD JUMPDEST DUP3 DUP2 GT ISZERO PUSH2 0x7DE JUMPI DUP3 MLOAD DUP3 SSTORE SWAP2 PUSH1 0x20 ADD SWAP2 SWAP1 PUSH1 0x1 ADD SWAP1 PUSH2 0x7C3 JUMP JUMPDEST JUMPDEST POP SWAP1 POP PUSH2 0x7EC SWAP2 SWAP1 PUSH2 0x87D JUMP JUMPDEST POP SWAP1 JUMP JUMPDEST DUP3 DUP1 SLOAD PUSH2 0x7FC SWAP1 PUSH2 0xDE9 JUMP JUMPDEST SWAP1 PUSH1 0x0 MSTORE PUSH1 0x20 PUSH1 0x0 KECCAK256 SWAP1 PUSH1 0x1F ADD PUSH1 0x20 SWAP1 DIV DUP2 ADD SWAP3 DUP3 PUSH2 0x81E JUMPI PUSH1 0x0 DUP6 SSTORE PUSH2 0x86C JUMP JUMPDEST DUP3 PUSH1 0x1F LT PUSH2 0x82F JUMPI DUP1 SLOAD DUP6 SSTORE PUSH2 0x86C JUMP JUMPDEST DUP3 DUP1 ADD PUSH1 0x1 ADD DUP6 SSTORE DUP3 ISZERO PUSH2 0x86C JUMPI PUSH1 0x0 MSTORE PUSH1 0x20 PUSH1 0x0 KECCAK256 SWAP2 PUSH1 0x1F ADD PUSH1 0x20 SWAP1 DIV DUP3 ADD JUMPDEST DUP3 DUP2 GT ISZERO PUSH2 0x86B JUMPI DUP3 SLOAD DUP3 SSTORE SWAP2 PUSH1 0x1 ADD SWAP2 SWAP1 PUSH1 0x1 ADD SWAP1 PUSH2 0x850 JUMP JUMPDEST JUMPDEST POP SWAP1 POP PUSH2 0x879 SWAP2 SWAP1 PUSH2 0x87D JUMP JUMPDEST POP SWAP1 JUMP JUMPDEST JUMPDEST DUP1 DUP3 GT ISZERO PUSH2 0x896 JUMPI PUSH1 0x0 DUP2 PUSH1 0x0 SWAP1 SSTORE POP PUSH1 0x1 ADD PUSH2 0x87E JUMP JUMPDEST POP SWAP1 JUMP JUMPDEST PUSH1 0x0 PUSH2 0x8AD PUSH2 0x8A8 DUP5 PUSH2 0xC7E JUMP JUMPDEST PUSH2 0xC59 JUMP JUMPDEST SWAP1 POP DUP3 DUP2 MSTORE PUSH1 0x20 DUP2 ADD DUP5 DUP5 DUP5 ADD GT ISZERO PUSH2 0x8C9 JUMPI PUSH2 0x8C8 PUSH2 0xF27 JUMP JUMPDEST JUMPDEST PUSH2 0x8D4 DUP5 DUP3 DUP6 PUSH2 0xDA7 JUMP JUMPDEST POP SWAP4 SWAP3 POP POP POP JUMP JUMPDEST PUSH1 0x0 DUP2 MLOAD SWAP1 POP PUSH2 0x8EB DUP2 PUSH2 0xFE8 JUMP JUMPDEST SWAP3 SWAP2 POP POP JUMP JUMPDEST PUSH1 0x0 DUP3 PUSH1 0x1F DUP4 ADD SLT PUSH2 0x906 JUMPI PUSH2 0x905 PUSH2 0xF22 JUMP JUMPDEST JUMPDEST DUP2 CALLDATALOAD PUSH2 0x916 DUP5 DUP3 PUSH1 0x20 DUP7 ADD PUSH2 0x89A JUMP JUMPDEST SWAP2 POP POP SWAP3 SWAP2 POP POP JUMP JUMPDEST PUSH1 0x0 DUP2 CALLDATALOAD SWAP1 POP PUSH2 0x92E DUP2 PUSH2 0xFFF JUMP JUMPDEST SWAP3 SWAP2 POP POP JUMP JUMPDEST PUSH1 0x0 PUSH1 0x20 DUP3 DUP5 SUB SLT ISZERO PUSH2 0x94A JUMPI PUSH2 0x949 PUSH2 0xF31 JUMP JUMPDEST JUMPDEST PUSH1 0x0 PUSH2 0x958 DUP5 DUP3 DUP6 ADD PUSH2 0x8DC JUMP JUMPDEST SWAP2 POP POP SWAP3 SWAP2 POP POP JUMP JUMPDEST PUSH1 0x0 DUP1 PUSH1 0x40 DUP4 DUP6 SUB SLT ISZERO PUSH2 0x978 JUMPI PUSH2 0x977 PUSH2 0xF31 JUMP JUMPDEST JUMPDEST PUSH1 0x0 PUSH2 0x986 DUP6 DUP3 DUP7 ADD PUSH2 0x91F JUMP JUMPDEST SWAP3 POP POP PUSH1 0x20 PUSH2 0x997 DUP6 DUP3 DUP7 ADD PUSH2 0x91F JUMP JUMPDEST SWAP2 POP POP SWAP3 POP SWAP3 SWAP1 POP JUMP JUMPDEST PUSH1 0x0 DUP1 PUSH1 0x0 PUSH1 0x60 DUP5 DUP7 SUB SLT ISZERO PUSH2 0x9BA JUMPI PUSH2 0x9B9 PUSH2 0xF31 JUMP JUMPDEST JUMPDEST PUSH1 0x0 PUSH2 0x9C8 DUP7 DUP3 DUP8 ADD PUSH2 0x91F JUMP JUMPDEST SWAP4 POP POP PUSH1 0x20 PUSH2 0x9D9 DUP7 DUP3 DUP8 ADD PUSH2 0x91F JUMP JUMPDEST SWAP3 POP POP PUSH1 0x40 DUP5 ADD CALLDATALOAD PUSH8 0xFFFFFFFFFFFFFFFF DUP2 GT ISZERO PUSH2 0x9FA JUMPI PUSH2 0x9F9 PUSH2 0xF2C JUMP JUMPDEST JUMPDEST PUSH2 0xA06 DUP7 DUP3 DUP8 ADD PUSH2 0x8F1 JUMP JUMPDEST SWAP2 POP POP SWAP3 POP SWAP3 POP SWAP3 JUMP JUMPDEST PUSH1 0x0 PUSH2 0xA1C DUP4 DUP4 PUSH2 0xB3B JUMP JUMPDEST SWAP1 POP SWAP3 SWAP2 POP POP JUMP JUMPDEST PUSH1 0x0 PUSH2 0xA2F DUP3 PUSH2 0xCBF JUMP JUMPDEST PUSH2 0xA39 DUP2 DUP6 PUSH2 0xCE2 JUMP JUMPDEST SWAP4 POP DUP4 PUSH1 0x20 DUP3 MUL DUP6 ADD PUSH2 0xA4B DUP6 PUSH2 0xCAF JUMP JUMPDEST DUP1 PUSH1 0x0 JUMPDEST DUP6 DUP2 LT ISZERO PUSH2 0xA87 JUMPI DUP5 DUP5 SUB DUP10 MSTORE DUP2 MLOAD PUSH2 0xA68 DUP6 DUP3 PUSH2 0xA10 JUMP JUMPDEST SWAP5 POP PUSH2 0xA73 DUP4 PUSH2 0xCD5 JUMP JUMPDEST SWAP3 POP PUSH1 0x20 DUP11 ADD SWAP10 POP POP PUSH1 0x1 DUP2 ADD SWAP1 POP PUSH2 0xA4F JUMP JUMPDEST POP DUP3 SWAP8 POP DUP8 SWAP6 POP POP POP POP POP POP SWAP3 SWAP2 POP POP JUMP JUMPDEST PUSH1 0x0 PUSH2 0xAA4 DUP3 PUSH2 0xCCA JUMP JUMPDEST PUSH2 0xAAE DUP2 DUP6 PUSH2 0xCF3 JUMP JUMPDEST SWAP4 POP PUSH2 0xABE DUP2 DUP6 PUSH1 0x20 DUP7 ADD PUSH2 0xDB6 JUMP JUMPDEST PUSH2 0xAC7 DUP2 PUSH2 0xF36 JUMP JUMPDEST DUP5 ADD SWAP2 POP POP SWAP3 SWAP2 POP POP JUMP JUMPDEST PUSH1 0x0 PUSH2 0xADF PUSH1 0x25 DUP4 PUSH2 0xD04 JUMP JUMPDEST SWAP2 POP PUSH2 0xAEA DUP3 PUSH2 0xF47 JUMP JUMPDEST PUSH1 0x40 DUP3 ADD SWAP1 POP SWAP2 SWAP1 POP JUMP JUMPDEST PUSH1 0x0 PUSH2 0xB02 PUSH1 0x13 DUP4 PUSH2 0xD04 JUMP JUMPDEST SWAP2 POP PUSH2 0xB0D DUP3 PUSH2 0xF96 JUMP JUMPDEST PUSH1 0x20 DUP3 ADD SWAP1 POP SWAP2 SWAP1 POP JUMP JUMPDEST PUSH1 0x0 PUSH2 0xB25 PUSH1 0x11 DUP4 PUSH2 0xD04 JUMP JUMPDEST SWAP2 POP PUSH2 0xB30 DUP3 PUSH2 0xFBF JUMP JUMPDEST PUSH1 0x20 DUP3 ADD SWAP1 POP SWAP2 SWAP1 POP JUMP JUMPDEST PUSH1 0x0 PUSH1 0x80 DUP4 ADD PUSH1 0x0 DUP4 ADD MLOAD PUSH2 0xB53 PUSH1 0x0 DUP7 ADD DUP3 PUSH2 0xB9E JUMP JUMPDEST POP PUSH1 0x20 DUP4 ADD MLOAD PUSH2 0xB66 PUSH1 0x20 DUP7 ADD DUP3 PUSH2 0xB9E JUMP JUMPDEST POP PUSH1 0x40 DUP4 ADD MLOAD PUSH2 0xB79 PUSH1 0x40 DUP7 ADD DUP3 PUSH2 0xB9E JUMP JUMPDEST POP PUSH1 0x60 DUP4 ADD MLOAD DUP5 DUP3 SUB PUSH1 0x60 DUP7 ADD MSTORE PUSH2 0xB91 DUP3 DUP3 PUSH2 0xA99 JUMP JUMPDEST SWAP2 POP POP DUP1 SWAP2 POP POP SWAP3 SWAP2 POP POP JUMP JUMPDEST PUSH2 0xBA7 DUP2 PUSH2 0xD9D JUMP JUMPDEST DUP3 MSTORE POP POP JUMP JUMPDEST PUSH2 0xBB6 DUP2 PUSH2 0xD9D JUMP JUMPDEST DUP3 MSTORE POP POP JUMP JUMPDEST PUSH1 0x0 PUSH1 0x20 DUP3 ADD SWAP1 POP DUP2 DUP2 SUB PUSH1 0x0 DUP4 ADD MSTORE PUSH2 0xBD6 DUP2 DUP5 PUSH2 0xA24 JUMP JUMPDEST SWAP1 POP SWAP3 SWAP2 POP POP JUMP JUMPDEST PUSH1 0x0 PUSH1 0x20 DUP3 ADD SWAP1 POP DUP2 DUP2 SUB PUSH1 0x0 DUP4 ADD MSTORE PUSH2 0xBF7 DUP2 PUSH2 0xAD2 JUMP JUMPDEST SWAP1 POP SWAP2 SWAP1 POP JUMP JUMPDEST PUSH1 0x0 PUSH1 0x20 DUP3 ADD SWAP1 POP DUP2 DUP2 SUB PUSH1 0x0 DUP4 ADD MSTORE PUSH2 0xC17 DUP2 PUSH2 0xAF5 JUMP JUMPDEST SWAP1 POP SWAP2 SWAP1 POP JUMP JUMPDEST PUSH1 0x0 PUSH1 0x20 DUP3 ADD SWAP1 POP DUP2 DUP2 SUB PUSH1 0x0 DUP4 ADD MSTORE PUSH2 0xC37 DUP2 PUSH2 0xB18 JUMP JUMPDEST SWAP1 POP SWAP2 SWAP1 POP JUMP JUMPDEST PUSH1 0x0 PUSH1 0x20 DUP3 ADD SWAP1 POP PUSH2 0xC53 PUSH1 0x0 DUP4 ADD DUP5 PUSH2 0xBAD JUMP JUMPDEST SWAP3 SWAP2 POP POP JUMP JUMPDEST PUSH1 0x0 PUSH2 0xC63 PUSH2 0xC74 JUMP JUMPDEST SWAP1 POP PUSH2 0xC6F DUP3 DUP3 PUSH2 0xE1B JUMP JUMPDEST SWAP2 SWAP1 POP JUMP JUMPDEST PUSH1 0x0 PUSH1 0x40 MLOAD SWAP1 POP SWAP1 JUMP JUMPDEST PUSH1 0x0 PUSH8 0xFFFFFFFFFFFFFFFF DUP3 GT ISZERO PUSH2 0xC99 JUMPI PUSH2 0xC98 PUSH2 0xEF3 JUMP JUMPDEST JUMPDEST PUSH2 0xCA2 DUP3 PUSH2 0xF36 JUMP JUMPDEST SWAP1 POP PUSH1 0x20 DUP2 ADD SWAP1 POP SWAP2 SWAP1 POP JUMP JUMPDEST PUSH1 0x0 DUP2 SWAP1 POP PUSH1 0x20 DUP3 ADD SWAP1 POP SWAP2 SWAP1 POP JUMP JUMPDEST PUSH1 0x0 DUP2 MLOAD SWAP1 POP SWAP2 SWAP1 POP JUMP JUMPDEST PUSH1 0x0 DUP2 MLOAD SWAP1 POP SWAP2 SWAP1 POP JUMP JUMPDEST PUSH1 0x0 PUSH1 0x20 DUP3 ADD SWAP1 POP SWAP2 SWAP1 POP JUMP JUMPDEST PUSH1 0x0 DUP3 DUP3 MSTORE PUSH1 0x20 DUP3 ADD SWAP1 POP SWAP3 SWAP2 POP POP JUMP JUMPDEST PUSH1 0x0 DUP3 DUP3 MSTORE PUSH1 0x20 DUP3 ADD SWAP1 POP SWAP3 SWAP2 POP POP JUMP JUMPDEST PUSH1 0x0 DUP3 DUP3 MSTORE PUSH1 0x20 DUP3 ADD SWAP1 POP SWAP3 SWAP2 POP POP JUMP JUMPDEST PUSH1 0x0 PUSH2 0xD20 DUP3 PUSH2 0xD9D JUMP JUMPDEST SWAP2 POP PUSH2 0xD2B DUP4 PUSH2 0xD9D JUMP JUMPDEST SWAP3 POP DUP3 PUSH32 0xFFFFFFFFFFFFFFFFFFFFFFFFFFFFFFFFFFFFFFFFFFFFFFFFFFFFFFFFFFFFFFFF SUB DUP3 GT ISZERO PUSH2 0xD60 JUMPI PUSH2 0xD5F PUSH2 0xE95 JUMP JUMPDEST JUMPDEST DUP3 DUP3 ADD SWAP1 POP SWAP3 SWAP2 POP POP JUMP JUMPDEST PUSH1 0x0 PUSH2 0xD76 DUP3 PUSH2 0xD7D JUMP JUMPDEST SWAP1 POP SWAP2 SWAP1 POP JUMP JUMPDEST PUSH1 0x0 PUSH20 0xFFFFFFFFFFFFFFFFFFFFFFFFFFFFFFFFFFFFFFFF DUP3 AND SWAP1 POP SWAP2 SWAP1 POP JUMP JUMPDEST PUSH1 0x0 DUP2 SWAP1 POP SWAP2 SWAP1 POP JUMP JUMPDEST DUP3 DUP2 DUP4 CALLDATACOPY PUSH1 0x0 DUP4 DUP4 ADD MSTORE POP POP POP JUMP JUMPDEST PUSH1 0x0 JUMPDEST DUP4 DUP2 LT ISZERO PUSH2 0xDD4 JUMPI DUP1 DUP3 ADD MLOAD DUP2 DUP5 ADD MSTORE PUSH1 0x20 DUP2 ADD SWAP1 POP PUSH2 0xDB9 JUMP JUMPDEST DUP4 DUP2 GT ISZERO PUSH2 0xDE3 JUMPI PUSH1 0x0 DUP5 DUP5 ADD MSTORE JUMPDEST POP POP POP POP JUMP JUMPDEST PUSH1 0x0 PUSH1 0x2 DUP3 DIV SWAP1 POP PUSH1 0x1 DUP3 AND DUP1 PUSH2 0xE01 JUMPI PUSH1 0x7F DUP3 AND SWAP2 POP JUMPDEST PUSH1 0x20 DUP3 LT DUP2 EQ ISZERO PUSH2 0xE15 JUMPI PUSH2 0xE14 PUSH2 0xEC4 JUMP JUMPDEST JUMPDEST POP SWAP2 SWAP1 POP JUMP JUMPDEST PUSH2 0xE24 DUP3 PUSH2 0xF36 JUMP JUMPDEST DUP2 ADD DUP2 DUP2 LT PUSH8 0xFFFFFFFFFFFFFFFF DUP3 GT OR ISZERO PUSH2 0xE43 JUMPI PUSH2 0xE42 PUSH2 0xEF3 JUMP JUMPDEST JUMPDEST DUP1 PUSH1 0x40 MSTORE POP POP POP JUMP JUMPDEST PUSH1 0x0 PUSH2 0xE57 DUP3 PUSH2 0xD9D JUMP JUMPDEST SWAP2 POP PUSH32 0xFFFFFFFFFFFFFFFFFFFFFFFFFFFFFFFFFFFFFFFFFFFFFFFFFFFFFFFFFFFFFFFF DUP3 EQ ISZERO PUSH2 0xE8A JUMPI PUSH2 0xE89 PUSH2 0xE95 JUMP JUMPDEST JUMPDEST PUSH1 0x1 DUP3 ADD SWAP1 POP SWAP2 SWAP1 POP JUMP JUMPDEST PUSH32 0x4E487B7100000000000000000000000000000000000000000000000000000000 PUSH1 0x0 MSTORE PUSH1 0x11 PUSH1 0x4 MSTORE PUSH1 0x24 PUSH1 0x0 REVERT JUMPDEST PUSH32 0x4E487B7100000000000000000000000000000000000000000000000000000000 PUSH1 0x0 MSTORE PUSH1 0x22 PUSH1 0x4 MSTORE PUSH1 0x24 PUSH1 0x0 REVERT JUMPDEST PUSH32 0x4E487B7100000000000000000000000000000000000000000000000000000000 PUSH1 0x0 MSTORE PUSH1 0x41 PUSH1 0x4 MSTORE PUSH1 0x24 PUSH1 0x0 REVERT JUMPDEST PUSH1 0x0 DUP1 REVERT JUMPDEST PUSH1 0x0 DUP1 REVERT JUMPDEST PUSH1 0x0 DUP1 REVERT JUMPDEST PUSH1 0x0 DUP1 REVERT JUMPDEST PUSH1 0x0 PUSH1 0x1F NOT PUSH1 0x1F DUP4 ADD AND SWAP1 POP SWAP2 SWAP1 POP JUMP JUMPDEST PUSH32 0x656E726F6C6C2041756374696F6E203A2041757468656E7469636174696F6E20 PUSH1 0x0 DUP3 ADD MSTORE PUSH32 0x6572726F72000000000000000000000000000000000000000000000000000000 PUSH1 0x20 DUP3 ADD MSTORE POP JUMP JUMPDEST PUSH32 0x57726F6E672061756374696F6E4E756D20212000000000000000000000000000 PUSH1 0x0 DUP3 ADD MSTORE POP JUMP JUMPDEST PUSH32 0x77726F6E672064656164206C696E652021000000000000000000000000000000 PUSH1 0x0 DUP3 ADD MSTORE POP JUMP JUMPDEST PUSH2 0xFF1 DUP2 PUSH2 0xD6B JUMP JUMPDEST DUP2 EQ PUSH2 0xFFC JUMPI PUSH1 0x0 DUP1 REVERT JUMPDEST POP JUMP JUMPDEST PUSH2 0x1008 DUP2 PUSH2 0xD9D JUMP JUMPDEST DUP2 EQ PUSH2 0x1013 JUMPI PUSH1 0x0 DUP1 REVERT JUMPDEST POP JUMP INVALID LOG2 PUSH5 0x6970667358 0x22 SLT KECCAK256 SWAP9 0xAD 0xDA ADDRESS 0xD0 DUP1 PUSH12 0xE61ACAE7909CA3828BAD23D8 PUSH22 0x176CAF588828C104327E551064736F6C634300080700 CALLER "
		},
		"gasEstimates": {
			"creation": {
				"codeDepositCost": "834400",
				"executionCost": "infinite",
				"totalCost": "infinite"
			},
			"external": {
				"bidding(uint256,uint256)": "infinite",
				"checkDeadLine()": "188",
				"enrollAuction(uint256,uint256,string)": "infinite",
				"getAuctionList()": "infinite"
			}
		},
		"methodIdentifiers": {
			"bidding(uint256,uint256)": "87fe412c",
			"checkDeadLine()": "de064c1c",
			"enrollAuction(uint256,uint256,string)": "58eed407",
			"getAuctionList()": "41a15f11"
		}
	},
	"abi": [
		{
			"inputs": [
				{
					"internalType": "address",
					"name": "erc20",
					"type": "address"
				},
				{
					"internalType": "address",
					"name": "erc721",
					"type": "address"
				}
			],
			"stateMutability": "nonpayable",
			"type": "constructor"
		},
		{
			"inputs": [
				{
					"internalType": "uint256",
					"name": "auctionNum",
					"type": "uint256"
				},
				{
					"internalType": "uint256",
					"name": "price",
					"type": "uint256"
				}
			],
			"name": "bidding",
			"outputs": [],
			"stateMutability": "nonpayable",
			"type": "function"
		},
		{
			"inputs": [],
			"name": "checkDeadLine",
			"outputs": [],
			"stateMutability": "nonpayable",
			"type": "function"
		},
		{
			"inputs": [
				{
					"internalType": "uint256",
					"name": "_tokenId",
					"type": "uint256"
				},
				{
					"internalType": "uint256",
					"name": "_deadLine",
					"type": "uint256"
				},
				{
					"internalType": "string",
					"name": "_desc",
					"type": "string"
				}
			],
			"name": "enrollAuction",
			"outputs": [],
			"stateMutability": "payable",
			"type": "function"
		},
		{
			"inputs": [],
			"name": "getAuctionList",
			"outputs": [
				{
					"components": [
						{
							"internalType": "uint256",
							"name": "auctionNum",
							"type": "uint256"
						},
						{
							"internalType": "uint256",
							"name": "tokenId",
							"type": "uint256"
						},
						{
							"internalType": "uint256",
							"name": "deadLine",
							"type": "uint256"
						},
						{
							"internalType": "string",
							"name": "desc",
							"type": "string"
						}
					],
					"internalType": "struct Auction.Auction[]",
					"name": "",
					"type": "tuple[]"
				}
			],
			"stateMutability": "view",
			"type": "function"
		}
	]
}